{
	"contracts/Lock.sol": {
		"Lock": {
			"abi": [
				{
					"inputs": [],
					"stateMutability": "nonpayable",
					"type": "constructor"
				},
				{
					"inputs": [],
					"name": "getBalance",
					"outputs": [
						{
							"internalType": "uint256",
							"name": "",
							"type": "uint256"
						}
					],
					"stateMutability": "view",
					"type": "function"
				},
				{
					"inputs": [],
					"name": "getParticipates",
					"outputs": [
						{
							"components": [
								{
									"internalType": "string",
									"name": "name",
									"type": "string"
								},
								{
									"internalType": "address payable",
									"name": "addr",
									"type": "address"
								}
							],
							"internalType": "struct Lock.Player[]",
							"name": "",
							"type": "tuple[]"
						}
					],
					"stateMutability": "view",
					"type": "function"
				},
				{
					"inputs": [],
					"name": "makeWinner",
					"outputs": [],
					"stateMutability": "nonpayable",
					"type": "function"
				},
				{
					"inputs": [],
					"name": "owner",
					"outputs": [
						{
							"internalType": "address",
							"name": "",
							"type": "address"
						}
					],
					"stateMutability": "view",
					"type": "function"
				},
				{
					"inputs": [
						{
							"internalType": "string",
							"name": "name",
							"type": "string"
						}
					],
					"name": "participate",
					"outputs": [],
					"stateMutability": "payable",
					"type": "function"
				},
				{
					"inputs": [
						{
							"internalType": "uint256",
							"name": "",
							"type": "uint256"
						}
					],
					"name": "players",
					"outputs": [
						{
							"internalType": "string",
							"name": "name",
							"type": "string"
						},
						{
							"internalType": "address payable",
							"name": "addr",
							"type": "address"
						}
					],
					"stateMutability": "view",
					"type": "function"
				},
				{
					"inputs": [],
					"name": "winner",
					"outputs": [
						{
							"internalType": "string",
							"name": "name",
							"type": "string"
						},
						{
							"internalType": "address payable",
							"name": "addr",
							"type": "address"
						}
					],
					"stateMutability": "view",
					"type": "function"
				}
			],
			"devdoc": {
				"kind": "dev",
				"methods": {},
				"version": 1
			},
			"evm": {
				"assembly": "    /* \"contracts/Lock.sol\":141:1148  contract Lock {... */\n  mstore(0x40, 0x80)\n    /* \"contracts/Lock.sol\":313:356  constructor(){... */\n  callvalue\n  dup1\n  iszero\n  tag_1\n  jumpi\n  0x00\n  dup1\n  revert\ntag_1:\n  pop\n    /* \"contracts/Lock.sol\":340:350  msg.sender */\n  caller\n    /* \"contracts/Lock.sol\":332:337  owner */\n  0x00\n  dup1\n    /* \"contracts/Lock.sol\":332:350  owner = msg.sender */\n  0x0100\n  exp\n  dup2\n  sload\n  dup2\n  0xffffffffffffffffffffffffffffffffffffffff\n  mul\n  not\n  and\n  swap1\n  dup4\n  0xffffffffffffffffffffffffffffffffffffffff\n  and\n  mul\n  or\n  swap1\n  sstore\n  pop\n    /* \"contracts/Lock.sol\":141:1148  contract Lock {... */\n  dataSize(sub_0)\n  dup1\n  dataOffset(sub_0)\n  0x00\n  codecopy\n  0x00\n  return\nstop\n\nsub_0: assembly {\n        /* \"contracts/Lock.sol\":141:1148  contract Lock {... */\n      mstore(0x40, 0x80)\n      jumpi(tag_1, lt(calldatasize, 0x04))\n      shr(0xe0, calldataload(0x00))\n      dup1\n      0x95251ef3\n      gt\n      tag_9\n      jumpi\n      dup1\n      0x95251ef3\n      eq\n      tag_5\n      jumpi\n      dup1\n      0xdfbf53ae\n      eq\n      tag_6\n      jumpi\n      dup1\n      0xf71d96cb\n      eq\n      tag_7\n      jumpi\n      dup1\n      0xf8e743ef\n      eq\n      tag_8\n      jumpi\n      jump(tag_1)\n    tag_9:\n      dup1\n      0x12065fe0\n      eq\n      tag_2\n      jumpi\n      dup1\n      0x1d27769f\n      eq\n      tag_3\n      jumpi\n      dup1\n      0x8da5cb5b\n      eq\n      tag_4\n      jumpi\n    tag_1:\n      0x00\n      dup1\n      revert\n        /* \"contracts/Lock.sol\":625:713  function getBalance() public view returns(uint) {... */\n    tag_2:\n      callvalue\n      dup1\n      iszero\n      tag_10\n      jumpi\n      0x00\n      dup1\n      revert\n    tag_10:\n      pop\n      tag_11\n      tag_12\n      jump\t// in\n    tag_11:\n      mload(0x40)\n      tag_13\n      swap2\n      swap1\n      tag_14\n      jump\t// in\n    tag_13:\n      mload(0x40)\n      dup1\n      swap2\n      sub\n      swap1\n      return\n        /* \"contracts/Lock.sol\":362:619  function participate (string memory name) public payable {... */\n    tag_3:\n      tag_15\n      0x04\n      dup1\n      calldatasize\n      sub\n      dup2\n      add\n      swap1\n      tag_16\n      swap2\n      swap1\n      tag_17\n      jump\t// in\n    tag_16:\n      tag_18\n      jump\t// in\n    tag_15:\n      stop\n        /* \"contracts/Lock.sol\":234:254  address public owner */\n    tag_4:\n      callvalue\n      dup1\n      iszero\n      tag_19\n      jumpi\n      0x00\n      dup1\n      revert\n    tag_19:\n      pop\n      tag_20\n      tag_21\n      jump\t// in\n    tag_20:\n      mload(0x40)\n      tag_22\n      swap2\n      swap1\n      tag_23\n      jump\t// in\n    tag_22:\n      mload(0x40)\n      dup1\n      swap2\n      sub\n      swap1\n      return\n        /* \"contracts/Lock.sol\":718:1047  function makeWinner() public {... */\n    tag_5:\n      callvalue\n      dup1\n      iszero\n      tag_24\n      jumpi\n      0x00\n      dup1\n      revert\n    tag_24:\n      pop\n      tag_25\n      tag_26\n      jump\t// in\n    tag_25:\n      stop\n        /* \"contracts/Lock.sol\":287:307  Player public winner */\n    tag_6:\n      callvalue\n      dup1\n      iszero\n      tag_27\n      jumpi\n      0x00\n      dup1\n      revert\n    tag_27:\n      pop\n      tag_28\n      tag_29\n      jump\t// in\n    tag_28:\n      mload(0x40)\n      tag_30\n      swap3\n      swap2\n      swap1\n      tag_31\n      jump\t// in\n    tag_30:\n      mload(0x40)\n      dup1\n      swap2\n      sub\n      swap1\n      return\n        /* \"contracts/Lock.sol\":259:282  Player[] public players */\n    tag_7:\n      callvalue\n      dup1\n      iszero\n      tag_32\n      jumpi\n      0x00\n      dup1\n      revert\n    tag_32:\n      pop\n      tag_33\n      0x04\n      dup1\n      calldatasize\n      sub\n      dup2\n      add\n      swap1\n      tag_34\n      swap2\n      swap1\n      tag_35\n      jump\t// in\n    tag_34:\n      tag_36\n      jump\t// in\n    tag_33:\n      mload(0x40)\n      tag_37\n      swap3\n      swap2\n      swap1\n      tag_31\n      jump\t// in\n    tag_37:\n      mload(0x40)\n      dup1\n      swap2\n      sub\n      swap1\n      return\n        /* \"contracts/Lock.sol\":1052:1146  function getParticipates () public view  returns (Player[] memory) {... */\n    tag_8:\n      callvalue\n      dup1\n      iszero\n      tag_38\n      jumpi\n      0x00\n      dup1\n      revert\n    tag_38:\n      pop\n      tag_39\n      tag_40\n      jump\t// in\n    tag_39:\n      mload(0x40)\n      tag_41\n      swap2\n      swap1\n      tag_42\n      jump\t// in\n    tag_41:\n      mload(0x40)\n      dup1\n      swap2\n      sub\n      swap1\n      return\n        /* \"contracts/Lock.sol\":625:713  function getBalance() public view returns(uint) {... */\n    tag_12:\n        /* \"contracts/Lock.sol\":667:671  uint */\n      0x00\n        /* \"contracts/Lock.sol\":686:707  address(this).balance */\n      selfbalance\n        /* \"contracts/Lock.sol\":679:707  return address(this).balance */\n      swap1\n      pop\n        /* \"contracts/Lock.sol\":625:713  function getBalance() public view returns(uint) {... */\n      swap1\n      jump\t// out\n        /* \"contracts/Lock.sol\":362:619  function participate (string memory name) public payable {... */\n    tag_18:\n        /* \"contracts/Lock.sol\":451:456  owner */\n      0x00\n      dup1\n      sload\n      swap1\n      0x0100\n      exp\n      swap1\n      div\n      0xffffffffffffffffffffffffffffffffffffffff\n      and\n        /* \"contracts/Lock.sol\":437:456  msg.sender != owner */\n      0xffffffffffffffffffffffffffffffffffffffff\n      and\n        /* \"contracts/Lock.sol\":437:447  msg.sender */\n      caller\n        /* \"contracts/Lock.sol\":437:456  msg.sender != owner */\n      0xffffffffffffffffffffffffffffffffffffffff\n      and\n      sub\n        /* \"contracts/Lock.sol\":429:484  require(msg.sender != owner, \"owner can't participate\") */\n      tag_45\n      jumpi\n      mload(0x40)\n      0x08c379a000000000000000000000000000000000000000000000000000000000\n      dup2\n      mstore\n      0x04\n      add\n      tag_46\n      swap1\n      tag_47\n      jump\t// in\n    tag_46:\n      mload(0x40)\n      dup1\n      swap2\n      sub\n      swap1\n      revert\n    tag_45:\n        /* \"contracts/Lock.sol\":515:522  1 ether */\n      0x0de0b6b3a7640000\n        /* \"contracts/Lock.sol\":502:511  msg.value */\n      callvalue\n        /* \"contracts/Lock.sol\":502:522  msg.value == 1 ether */\n      eq\n        /* \"contracts/Lock.sol\":494:557  require(msg.value == 1 ether, \"1 eth required for participate\") */\n      tag_48\n      jumpi\n      mload(0x40)\n      0x08c379a000000000000000000000000000000000000000000000000000000000\n      dup2\n      mstore\n      0x04\n      add\n      tag_49\n      swap1\n      tag_50\n      jump\t// in\n    tag_49:\n      mload(0x40)\n      dup1\n      swap2\n      sub\n      swap1\n      revert\n    tag_48:\n        /* \"contracts/Lock.sol\":567:574  players */\n      0x01\n        /* \"contracts/Lock.sol\":580:612  Player(name,payable(msg.sender)) */\n      mload(0x40)\n      dup1\n      0x40\n      add\n      0x40\n      mstore\n      dup1\n        /* \"contracts/Lock.sol\":587:591  name */\n      dup4\n        /* \"contracts/Lock.sol\":580:612  Player(name,payable(msg.sender)) */\n      dup2\n      mstore\n      0x20\n      add\n        /* \"contracts/Lock.sol\":600:610  msg.sender */\n      caller\n        /* \"contracts/Lock.sol\":580:612  Player(name,payable(msg.sender)) */\n      0xffffffffffffffffffffffffffffffffffffffff\n      and\n      dup2\n      mstore\n      pop\n        /* \"contracts/Lock.sol\":567:613  players.push(Player(name,payable(msg.sender))) */\n      swap1\n      dup1\n      0x01\n      dup2\n      sload\n      add\n      dup1\n      dup3\n      sstore\n      dup1\n      swap2\n      pop\n      pop\n      0x01\n      swap1\n      sub\n      swap1\n      0x00\n      mstore\n      keccak256(0x00, 0x20)\n      swap1\n      0x02\n      mul\n      add\n      0x00\n      swap1\n      swap2\n      swap1\n      swap2\n      swap1\n      swap2\n      pop\n      0x00\n      dup3\n      add\n      mload\n      dup2\n      0x00\n      add\n      swap1\n      dup2\n      tag_52\n      swap2\n      swap1\n      tag_53\n      jump\t// in\n    tag_52:\n      pop\n      0x20\n      dup3\n      add\n      mload\n      dup2\n      0x01\n      add\n      exp(0x0100, 0x00)\n      dup2\n      sload\n      dup2\n      0xffffffffffffffffffffffffffffffffffffffff\n      mul\n      not\n      and\n      swap1\n      dup4\n      0xffffffffffffffffffffffffffffffffffffffff\n      and\n      mul\n      or\n      swap1\n      sstore\n      pop\n      pop\n      pop\n        /* \"contracts/Lock.sol\":362:619  function participate (string memory name) public payable {... */\n      pop\n      jump\t// out\n        /* \"contracts/Lock.sol\":234:254  address public owner */\n    tag_21:\n      0x00\n      dup1\n      sload\n      swap1\n      0x0100\n      exp\n      swap1\n      div\n      0xffffffffffffffffffffffffffffffffffffffff\n      and\n      dup2\n      jump\t// out\n        /* \"contracts/Lock.sol\":718:1047  function makeWinner() public {... */\n    tag_26:\n        /* \"contracts/Lock.sol\":776:781  owner */\n      0x00\n      dup1\n      sload\n      swap1\n      0x0100\n      exp\n      swap1\n      div\n      0xffffffffffffffffffffffffffffffffffffffff\n      and\n        /* \"contracts/Lock.sol\":762:781  msg.sender == owner */\n      0xffffffffffffffffffffffffffffffffffffffff\n      and\n        /* \"contracts/Lock.sol\":762:772  msg.sender */\n      caller\n        /* \"contracts/Lock.sol\":762:781  msg.sender == owner */\n      0xffffffffffffffffffffffffffffffffffffffff\n      and\n      eq\n        /* \"contracts/Lock.sol\":754:812  require(msg.sender == owner, \"owner can only make Winner\") */\n      tag_55\n      jumpi\n      mload(0x40)\n      0x08c379a000000000000000000000000000000000000000000000000000000000\n      dup2\n      mstore\n      0x04\n      add\n      tag_56\n      swap1\n      tag_57\n      jump\t// in\n    tag_56:\n      mload(0x40)\n      dup1\n      swap2\n      sub\n      swap1\n      revert\n    tag_55:\n        /* \"contracts/Lock.sol\":845:846  3 */\n      0x03\n        /* \"contracts/Lock.sol\":827:834  players */\n      0x01\n        /* \"contracts/Lock.sol\":827:841  players.length */\n      dup1\n      sload\n      swap1\n      pop\n        /* \"contracts/Lock.sol\":827:846  players.length >= 3 */\n      lt\n      iszero\n        /* \"contracts/Lock.sol\":819:878  require(players.length >= 3, \"requires at least 3 players\") */\n      tag_58\n      jumpi\n      mload(0x40)\n      0x08c379a000000000000000000000000000000000000000000000000000000000\n      dup2\n      mstore\n      0x04\n      add\n      tag_59\n      swap1\n      tag_60\n      jump\t// in\n    tag_59:\n      mload(0x40)\n      dup1\n      swap2\n      sub\n      swap1\n      revert\n    tag_58:\n        /* \"contracts/Lock.sol\":885:895  uint index */\n      0x00\n        /* \"contracts/Lock.sol\":952:959  players */\n      0x01\n        /* \"contracts/Lock.sol\":952:966  players.length */\n      dup1\n      sload\n      swap1\n      pop\n        /* \"contracts/Lock.sol\":933:948  block.timestamp */\n      timestamp\n        /* \"contracts/Lock.sol\":916:949  abi.encodePacked(block.timestamp) */\n      add(0x20, mload(0x40))\n      tag_61\n      swap2\n      swap1\n      tag_62\n      jump\t// in\n    tag_61:\n      mload(0x40)\n      0x20\n      dup2\n      dup4\n      sub\n      sub\n      dup2\n      mstore\n      swap1\n      0x40\n      mstore\n        /* \"contracts/Lock.sol\":906:950  keccak256(abi.encodePacked(block.timestamp)) */\n      dup1\n      mload\n      swap1\n      0x20\n      add\n      keccak256\n        /* \"contracts/Lock.sol\":898:951  uint256(keccak256(abi.encodePacked(block.timestamp))) */\n      0x00\n      shr\n        /* \"contracts/Lock.sol\":898:966  uint256(keccak256(abi.encodePacked(block.timestamp)))%players.length */\n      tag_63\n      swap2\n      swap1\n      tag_64\n      jump\t// in\n    tag_63:\n        /* \"contracts/Lock.sol\":885:966  uint index = uint256(keccak256(abi.encodePacked(block.timestamp)))%players.length */\n      swap1\n      pop\n        /* \"contracts/Lock.sol\":980:987  players */\n      0x01\n        /* \"contracts/Lock.sol\":988:993  index */\n      dup2\n        /* \"contracts/Lock.sol\":980:994  players[index] */\n      dup2\n      sload\n      dup2\n      lt\n      tag_65\n      jumpi\n      tag_66\n      tag_67\n      jump\t// in\n    tag_66:\n    tag_65:\n      swap1\n      0x00\n      mstore\n      keccak256(0x00, 0x20)\n      swap1\n      0x02\n      mul\n      add\n        /* \"contracts/Lock.sol\":973:979  winner */\n      0x02\n        /* \"contracts/Lock.sol\":973:994  winner=players[index] */\n      0x00\n      dup3\n      add\n      dup2\n      0x00\n      add\n      swap1\n      dup2\n      tag_69\n      swap2\n      swap1\n      tag_70\n      jump\t// in\n    tag_69:\n      pop\n      0x01\n      dup3\n      add\n      0x00\n      swap1\n      sload\n      swap1\n      0x0100\n      exp\n      swap1\n      div\n      0xffffffffffffffffffffffffffffffffffffffff\n      and\n      dup2\n      0x01\n      add\n      exp(0x0100, 0x00)\n      dup2\n      sload\n      dup2\n      0xffffffffffffffffffffffffffffffffffffffff\n      mul\n      not\n      and\n      swap1\n      dup4\n      0xffffffffffffffffffffffffffffffffffffffff\n      and\n      mul\n      or\n      swap1\n      sstore\n      pop\n      swap1\n      pop\n      pop\n        /* \"contracts/Lock.sol\":1001:1007  winner */\n      0x02\n        /* \"contracts/Lock.sol\":1001:1012  winner.addr */\n      0x01\n      add\n      0x00\n      swap1\n      sload\n      swap1\n      0x0100\n      exp\n      swap1\n      div\n      0xffffffffffffffffffffffffffffffffffffffff\n      and\n        /* \"contracts/Lock.sol\":1001:1021  winner.addr.transfer */\n      0xffffffffffffffffffffffffffffffffffffffff\n      and\n        /* \"contracts/Lock.sol\":1001:1035  winner.addr.transfer(getBalance()) */\n      0x08fc\n        /* \"contracts/Lock.sol\":1022:1034  getBalance() */\n      tag_71\n        /* \"contracts/Lock.sol\":1022:1032  getBalance */\n      tag_12\n        /* \"contracts/Lock.sol\":1022:1034  getBalance() */\n      jump\t// in\n    tag_71:\n        /* \"contracts/Lock.sol\":1001:1035  winner.addr.transfer(getBalance()) */\n      swap1\n      dup2\n      iszero\n      mul\n      swap1\n      mload(0x40)\n      0x00\n      mload(0x40)\n      dup1\n      dup4\n      sub\n      dup2\n      dup6\n      dup9\n      dup9\n      call\n      swap4\n      pop\n      pop\n      pop\n      pop\n      iszero\n      dup1\n      iszero\n      tag_73\n      jumpi\n      returndatasize\n      0x00\n      dup1\n      returndatacopy\n      revert(0x00, returndatasize)\n    tag_73:\n      pop\n        /* \"contracts/Lock.sol\":747:1047  {... */\n      pop\n        /* \"contracts/Lock.sol\":718:1047  function makeWinner() public {... */\n      jump\t// out\n        /* \"contracts/Lock.sol\":287:307  Player public winner */\n    tag_29:\n      0x02\n      dup1\n      0x00\n      add\n      dup1\n      sload\n      tag_74\n      swap1\n      tag_75\n      jump\t// in\n    tag_74:\n      dup1\n      0x1f\n      add\n      0x20\n      dup1\n      swap2\n      div\n      mul\n      0x20\n      add\n      mload(0x40)\n      swap1\n      dup2\n      add\n      0x40\n      mstore\n      dup1\n      swap3\n      swap2\n      swap1\n      dup2\n      dup2\n      mstore\n      0x20\n      add\n      dup3\n      dup1\n      sload\n      tag_76\n      swap1\n      tag_75\n      jump\t// in\n    tag_76:\n      dup1\n      iszero\n      tag_77\n      jumpi\n      dup1\n      0x1f\n      lt\n      tag_78\n      jumpi\n      0x0100\n      dup1\n      dup4\n      sload\n      div\n      mul\n      dup4\n      mstore\n      swap2\n      0x20\n      add\n      swap2\n      jump(tag_77)\n    tag_78:\n      dup3\n      add\n      swap2\n      swap1\n      0x00\n      mstore\n      keccak256(0x00, 0x20)\n      swap1\n    tag_79:\n      dup2\n      sload\n      dup2\n      mstore\n      swap1\n      0x01\n      add\n      swap1\n      0x20\n      add\n      dup1\n      dup4\n      gt\n      tag_79\n      jumpi\n      dup3\n      swap1\n      sub\n      0x1f\n      and\n      dup3\n      add\n      swap2\n    tag_77:\n      pop\n      pop\n      pop\n      pop\n      pop\n      swap1\n      dup1\n      0x01\n      add\n      0x00\n      swap1\n      sload\n      swap1\n      0x0100\n      exp\n      swap1\n      div\n      0xffffffffffffffffffffffffffffffffffffffff\n      and\n      swap1\n      pop\n      dup3\n      jump\t// out\n        /* \"contracts/Lock.sol\":259:282  Player[] public players */\n    tag_36:\n      0x01\n      dup2\n      dup2\n      sload\n      dup2\n      lt\n      tag_80\n      jumpi\n      0x00\n      dup1\n      revert\n    tag_80:\n      swap1\n      0x00\n      mstore\n      keccak256(0x00, 0x20)\n      swap1\n      0x02\n      mul\n      add\n      0x00\n      swap2\n      pop\n      swap1\n      pop\n      dup1\n      0x00\n      add\n      dup1\n      sload\n      tag_82\n      swap1\n      tag_75\n      jump\t// in\n    tag_82:\n      dup1\n      0x1f\n      add\n      0x20\n      dup1\n      swap2\n      div\n      mul\n      0x20\n      add\n      mload(0x40)\n      swap1\n      dup2\n      add\n      0x40\n      mstore\n      dup1\n      swap3\n      swap2\n      swap1\n      dup2\n      dup2\n      mstore\n      0x20\n      add\n      dup3\n      dup1\n      sload\n      tag_83\n      swap1\n      tag_75\n      jump\t// in\n    tag_83:\n      dup1\n      iszero\n      tag_84\n      jumpi\n      dup1\n      0x1f\n      lt\n      tag_85\n      jumpi\n      0x0100\n      dup1\n      dup4\n      sload\n      div\n      mul\n      dup4\n      mstore\n      swap2\n      0x20\n      add\n      swap2\n      jump(tag_84)\n    tag_85:\n      dup3\n      add\n      swap2\n      swap1\n      0x00\n      mstore\n      keccak256(0x00, 0x20)\n      swap1\n    tag_86:\n      dup2\n      sload\n      dup2\n      mstore\n      swap1\n      0x01\n      add\n      swap1\n      0x20\n      add\n      dup1\n      dup4\n      gt\n      tag_86\n      jumpi\n      dup3\n      swap1\n      sub\n      0x1f\n      and\n      dup3\n      add\n      swap2\n    tag_84:\n      pop\n      pop\n      pop\n      pop\n      pop\n      swap1\n      dup1\n      0x01\n      add\n      0x00\n      swap1\n      sload\n      swap1\n      0x0100\n      exp\n      swap1\n      div\n      0xffffffffffffffffffffffffffffffffffffffff\n      and\n      swap1\n      pop\n      dup3\n      jump\t// out\n        /* \"contracts/Lock.sol\":1052:1146  function getParticipates () public view  returns (Player[] memory) {... */\n    tag_40:\n        /* \"contracts/Lock.sol\":1102:1117  Player[] memory */\n      0x60\n        /* \"contracts/Lock.sol\":1133:1140  players */\n      0x01\n        /* \"contracts/Lock.sol\":1125:1140  return  players */\n      dup1\n      sload\n      dup1\n      0x20\n      mul\n      0x20\n      add\n      mload(0x40)\n      swap1\n      dup2\n      add\n      0x40\n      mstore\n      dup1\n      swap3\n      swap2\n      swap1\n      dup2\n      dup2\n      mstore\n      0x20\n      add\n      0x00\n      swap1\n    tag_88:\n      dup3\n      dup3\n      lt\n      iszero\n      tag_89\n      jumpi\n      dup4\n      dup3\n      swap1\n      0x00\n      mstore\n      keccak256(0x00, 0x20)\n      swap1\n      0x02\n      mul\n      add\n      mload(0x40)\n      dup1\n      0x40\n      add\n      0x40\n      mstore\n      swap1\n      dup2\n      0x00\n      dup3\n      add\n      dup1\n      sload\n      tag_91\n      swap1\n      tag_75\n      jump\t// in\n    tag_91:\n      dup1\n      0x1f\n      add\n      0x20\n      dup1\n      swap2\n      div\n      mul\n      0x20\n      add\n      mload(0x40)\n      swap1\n      dup2\n      add\n      0x40\n      mstore\n      dup1\n      swap3\n      swap2\n      swap1\n      dup2\n      dup2\n      mstore\n      0x20\n      add\n      dup3\n      dup1\n      sload\n      tag_92\n      swap1\n      tag_75\n      jump\t// in\n    tag_92:\n      dup1\n      iszero\n      tag_93\n      jumpi\n      dup1\n      0x1f\n      lt\n      tag_94\n      jumpi\n      0x0100\n      dup1\n      dup4\n      sload\n      div\n      mul\n      dup4\n      mstore\n      swap2\n      0x20\n      add\n      swap2\n      jump(tag_93)\n    tag_94:\n      dup3\n      add\n      swap2\n      swap1\n      0x00\n      mstore\n      keccak256(0x00, 0x20)\n      swap1\n    tag_95:\n      dup2\n      sload\n      dup2\n      mstore\n      swap1\n      0x01\n      add\n      swap1\n      0x20\n      add\n      dup1\n      dup4\n      gt\n      tag_95\n      jumpi\n      dup3\n      swap1\n      sub\n      0x1f\n      and\n      dup3\n      add\n      swap2\n    tag_93:\n      pop\n      pop\n      pop\n      pop\n      pop\n      dup2\n      mstore\n      0x20\n      add\n      0x01\n      dup3\n      add\n      0x00\n      swap1\n      sload\n      swap1\n      0x0100\n      exp\n      swap1\n      div\n      0xffffffffffffffffffffffffffffffffffffffff\n      and\n      0xffffffffffffffffffffffffffffffffffffffff\n      and\n      0xffffffffffffffffffffffffffffffffffffffff\n      and\n      dup2\n      mstore\n      pop\n      pop\n      dup2\n      mstore\n      0x20\n      add\n      swap1\n      0x01\n      add\n      swap1\n      jump(tag_88)\n    tag_89:\n      pop\n      pop\n      pop\n      pop\n      swap1\n      pop\n        /* \"contracts/Lock.sol\":1052:1146  function getParticipates () public view  returns (Player[] memory) {... */\n      swap1\n      jump\t// out\n        /* \"#utility.yul\":7:84   */\n    tag_96:\n        /* \"#utility.yul\":44:51   */\n      0x00\n        /* \"#utility.yul\":73:78   */\n      dup2\n        /* \"#utility.yul\":62:78   */\n      swap1\n      pop\n        /* \"#utility.yul\":7:84   */\n      swap2\n      swap1\n      pop\n      jump\t// out\n        /* \"#utility.yul\":90:208   */\n    tag_97:\n        /* \"#utility.yul\":177:201   */\n      tag_163\n        /* \"#utility.yul\":195:200   */\n      dup2\n        /* \"#utility.yul\":177:201   */\n      tag_96\n      jump\t// in\n    tag_163:\n        /* \"#utility.yul\":172:175   */\n      dup3\n        /* \"#utility.yul\":165:202   */\n      mstore\n        /* \"#utility.yul\":90:208   */\n      pop\n      pop\n      jump\t// out\n        /* \"#utility.yul\":214:436   */\n    tag_14:\n        /* \"#utility.yul\":307:311   */\n      0x00\n        /* \"#utility.yul\":345:347   */\n      0x20\n        /* \"#utility.yul\":334:343   */\n      dup3\n        /* \"#utility.yul\":330:348   */\n      add\n        /* \"#utility.yul\":322:348   */\n      swap1\n      pop\n        /* \"#utility.yul\":358:429   */\n      tag_165\n        /* \"#utility.yul\":426:427   */\n      0x00\n        /* \"#utility.yul\":415:424   */\n      dup4\n        /* \"#utility.yul\":411:428   */\n      add\n        /* \"#utility.yul\":402:408   */\n      dup5\n        /* \"#utility.yul\":358:429   */\n      tag_97\n      jump\t// in\n    tag_165:\n        /* \"#utility.yul\":214:436   */\n      swap3\n      swap2\n      pop\n      pop\n      jump\t// out\n        /* \"#utility.yul\":442:517   */\n    tag_98:\n        /* \"#utility.yul\":475:481   */\n      0x00\n        /* \"#utility.yul\":508:510   */\n      0x40\n        /* \"#utility.yul\":502:511   */\n      mload\n        /* \"#utility.yul\":492:511   */\n      swap1\n      pop\n        /* \"#utility.yul\":442:517   */\n      swap1\n      jump\t// out\n        /* \"#utility.yul\":523:640   */\n    tag_99:\n        /* \"#utility.yul\":632:633   */\n      0x00\n        /* \"#utility.yul\":629:630   */\n      dup1\n        /* \"#utility.yul\":622:634   */\n      revert\n        /* \"#utility.yul\":646:763   */\n    tag_100:\n        /* \"#utility.yul\":755:756   */\n      0x00\n        /* \"#utility.yul\":752:753   */\n      dup1\n        /* \"#utility.yul\":745:757   */\n      revert\n        /* \"#utility.yul\":769:886   */\n    tag_101:\n        /* \"#utility.yul\":878:879   */\n      0x00\n        /* \"#utility.yul\":875:876   */\n      dup1\n        /* \"#utility.yul\":868:880   */\n      revert\n        /* \"#utility.yul\":892:1009   */\n    tag_102:\n        /* \"#utility.yul\":1001:1002   */\n      0x00\n        /* \"#utility.yul\":998:999   */\n      dup1\n        /* \"#utility.yul\":991:1003   */\n      revert\n        /* \"#utility.yul\":1015:1117   */\n    tag_103:\n        /* \"#utility.yul\":1056:1062   */\n      0x00\n        /* \"#utility.yul\":1107:1109   */\n      0x1f\n        /* \"#utility.yul\":1103:1110   */\n      not\n        /* \"#utility.yul\":1098:1100   */\n      0x1f\n        /* \"#utility.yul\":1091:1096   */\n      dup4\n        /* \"#utility.yul\":1087:1101   */\n      add\n        /* \"#utility.yul\":1083:1111   */\n      and\n        /* \"#utility.yul\":1073:1111   */\n      swap1\n      pop\n        /* \"#utility.yul\":1015:1117   */\n      swap2\n      swap1\n      pop\n      jump\t// out\n        /* \"#utility.yul\":1123:1303   */\n    tag_104:\n        /* \"#utility.yul\":1171:1248   */\n      0x4e487b7100000000000000000000000000000000000000000000000000000000\n        /* \"#utility.yul\":1168:1169   */\n      0x00\n        /* \"#utility.yul\":1161:1249   */\n      mstore\n        /* \"#utility.yul\":1268:1272   */\n      0x41\n        /* \"#utility.yul\":1265:1266   */\n      0x04\n        /* \"#utility.yul\":1258:1273   */\n      mstore\n        /* \"#utility.yul\":1292:1296   */\n      0x24\n        /* \"#utility.yul\":1289:1290   */\n      0x00\n        /* \"#utility.yul\":1282:1297   */\n      revert\n        /* \"#utility.yul\":1309:1590   */\n    tag_105:\n        /* \"#utility.yul\":1392:1419   */\n      tag_174\n        /* \"#utility.yul\":1414:1418   */\n      dup3\n        /* \"#utility.yul\":1392:1419   */\n      tag_103\n      jump\t// in\n    tag_174:\n        /* \"#utility.yul\":1384:1390   */\n      dup2\n        /* \"#utility.yul\":1380:1420   */\n      add\n        /* \"#utility.yul\":1522:1528   */\n      dup2\n        /* \"#utility.yul\":1510:1520   */\n      dup2\n        /* \"#utility.yul\":1507:1529   */\n      lt\n        /* \"#utility.yul\":1486:1504   */\n      0xffffffffffffffff\n        /* \"#utility.yul\":1474:1484   */\n      dup3\n        /* \"#utility.yul\":1471:1505   */\n      gt\n        /* \"#utility.yul\":1468:1530   */\n      or\n        /* \"#utility.yul\":1465:1553   */\n      iszero\n      tag_175\n      jumpi\n        /* \"#utility.yul\":1533:1551   */\n      tag_176\n      tag_104\n      jump\t// in\n    tag_176:\n        /* \"#utility.yul\":1465:1553   */\n    tag_175:\n        /* \"#utility.yul\":1573:1583   */\n      dup1\n        /* \"#utility.yul\":1569:1571   */\n      0x40\n        /* \"#utility.yul\":1562:1584   */\n      mstore\n        /* \"#utility.yul\":1352:1590   */\n      pop\n        /* \"#utility.yul\":1309:1590   */\n      pop\n      pop\n      jump\t// out\n        /* \"#utility.yul\":1596:1725   */\n    tag_106:\n        /* \"#utility.yul\":1630:1636   */\n      0x00\n        /* \"#utility.yul\":1657:1677   */\n      tag_178\n      tag_98\n      jump\t// in\n    tag_178:\n        /* \"#utility.yul\":1647:1677   */\n      swap1\n      pop\n        /* \"#utility.yul\":1686:1719   */\n      tag_179\n        /* \"#utility.yul\":1714:1718   */\n      dup3\n        /* \"#utility.yul\":1706:1712   */\n      dup3\n        /* \"#utility.yul\":1686:1719   */\n      tag_105\n      jump\t// in\n    tag_179:\n        /* \"#utility.yul\":1596:1725   */\n      swap2\n      swap1\n      pop\n      jump\t// out\n        /* \"#utility.yul\":1731:2039   */\n    tag_107:\n        /* \"#utility.yul\":1793:1797   */\n      0x00\n        /* \"#utility.yul\":1883:1901   */\n      0xffffffffffffffff\n        /* \"#utility.yul\":1875:1881   */\n      dup3\n        /* \"#utility.yul\":1872:1902   */\n      gt\n        /* \"#utility.yul\":1869:1925   */\n      iszero\n      tag_181\n      jumpi\n        /* \"#utility.yul\":1905:1923   */\n      tag_182\n      tag_104\n      jump\t// in\n    tag_182:\n        /* \"#utility.yul\":1869:1925   */\n    tag_181:\n        /* \"#utility.yul\":1943:1972   */\n      tag_183\n        /* \"#utility.yul\":1965:1971   */\n      dup3\n        /* \"#utility.yul\":1943:1972   */\n      tag_103\n      jump\t// in\n    tag_183:\n        /* \"#utility.yul\":1935:1972   */\n      swap1\n      pop\n        /* \"#utility.yul\":2027:2031   */\n      0x20\n        /* \"#utility.yul\":2021:2025   */\n      dup2\n        /* \"#utility.yul\":2017:2032   */\n      add\n        /* \"#utility.yul\":2009:2032   */\n      swap1\n      pop\n        /* \"#utility.yul\":1731:2039   */\n      swap2\n      swap1\n      pop\n      jump\t// out\n        /* \"#utility.yul\":2045:2193   */\n    tag_108:\n        /* \"#utility.yul\":2143:2149   */\n      dup3\n        /* \"#utility.yul\":2138:2141   */\n      dup2\n        /* \"#utility.yul\":2133:2136   */\n      dup4\n        /* \"#utility.yul\":2120:2150   */\n      calldatacopy\n        /* \"#utility.yul\":2184:2185   */\n      0x00\n        /* \"#utility.yul\":2175:2181   */\n      dup4\n        /* \"#utility.yul\":2170:2173   */\n      dup4\n        /* \"#utility.yul\":2166:2182   */\n      add\n        /* \"#utility.yul\":2159:2186   */\n      mstore\n        /* \"#utility.yul\":2045:2193   */\n      pop\n      pop\n      pop\n      jump\t// out\n        /* \"#utility.yul\":2199:2624   */\n    tag_109:\n        /* \"#utility.yul\":2277:2282   */\n      0x00\n        /* \"#utility.yul\":2302:2368   */\n      tag_186\n        /* \"#utility.yul\":2318:2367   */\n      tag_187\n        /* \"#utility.yul\":2360:2366   */\n      dup5\n        /* \"#utility.yul\":2318:2367   */\n      tag_107\n      jump\t// in\n    tag_187:\n        /* \"#utility.yul\":2302:2368   */\n      tag_106\n      jump\t// in\n    tag_186:\n        /* \"#utility.yul\":2293:2368   */\n      swap1\n      pop\n        /* \"#utility.yul\":2391:2397   */\n      dup3\n        /* \"#utility.yul\":2384:2389   */\n      dup2\n        /* \"#utility.yul\":2377:2398   */\n      mstore\n        /* \"#utility.yul\":2429:2433   */\n      0x20\n        /* \"#utility.yul\":2422:2427   */\n      dup2\n        /* \"#utility.yul\":2418:2434   */\n      add\n        /* \"#utility.yul\":2467:2470   */\n      dup5\n        /* \"#utility.yul\":2458:2464   */\n      dup5\n        /* \"#utility.yul\":2453:2456   */\n      dup5\n        /* \"#utility.yul\":2449:2465   */\n      add\n        /* \"#utility.yul\":2446:2471   */\n      gt\n        /* \"#utility.yul\":2443:2555   */\n      iszero\n      tag_188\n      jumpi\n        /* \"#utility.yul\":2474:2553   */\n      tag_189\n      tag_102\n      jump\t// in\n    tag_189:\n        /* \"#utility.yul\":2443:2555   */\n    tag_188:\n        /* \"#utility.yul\":2564:2618   */\n      tag_190\n        /* \"#utility.yul\":2611:2617   */\n      dup5\n        /* \"#utility.yul\":2606:2609   */\n      dup3\n        /* \"#utility.yul\":2601:2604   */\n      dup6\n        /* \"#utility.yul\":2564:2618   */\n      tag_108\n      jump\t// in\n    tag_190:\n        /* \"#utility.yul\":2283:2624   */\n      pop\n        /* \"#utility.yul\":2199:2624   */\n      swap4\n      swap3\n      pop\n      pop\n      pop\n      jump\t// out\n        /* \"#utility.yul\":2644:2984   */\n    tag_110:\n        /* \"#utility.yul\":2700:2705   */\n      0x00\n        /* \"#utility.yul\":2749:2752   */\n      dup3\n        /* \"#utility.yul\":2742:2746   */\n      0x1f\n        /* \"#utility.yul\":2734:2740   */\n      dup4\n        /* \"#utility.yul\":2730:2747   */\n      add\n        /* \"#utility.yul\":2726:2753   */\n      slt\n        /* \"#utility.yul\":2716:2838   */\n      tag_192\n      jumpi\n        /* \"#utility.yul\":2757:2836   */\n      tag_193\n      tag_101\n      jump\t// in\n    tag_193:\n        /* \"#utility.yul\":2716:2838   */\n    tag_192:\n        /* \"#utility.yul\":2874:2880   */\n      dup2\n        /* \"#utility.yul\":2861:2881   */\n      calldataload\n        /* \"#utility.yul\":2899:2978   */\n      tag_194\n        /* \"#utility.yul\":2974:2977   */\n      dup5\n        /* \"#utility.yul\":2966:2972   */\n      dup3\n        /* \"#utility.yul\":2959:2963   */\n      0x20\n        /* \"#utility.yul\":2951:2957   */\n      dup7\n        /* \"#utility.yul\":2947:2964   */\n      add\n        /* \"#utility.yul\":2899:2978   */\n      tag_109\n      jump\t// in\n    tag_194:\n        /* \"#utility.yul\":2890:2978   */\n      swap2\n      pop\n        /* \"#utility.yul\":2706:2984   */\n      pop\n        /* \"#utility.yul\":2644:2984   */\n      swap3\n      swap2\n      pop\n      pop\n      jump\t// out\n        /* \"#utility.yul\":2990:3499   */\n    tag_17:\n        /* \"#utility.yul\":3059:3065   */\n      0x00\n        /* \"#utility.yul\":3108:3110   */\n      0x20\n        /* \"#utility.yul\":3096:3105   */\n      dup3\n        /* \"#utility.yul\":3087:3094   */\n      dup5\n        /* \"#utility.yul\":3083:3106   */\n      sub\n        /* \"#utility.yul\":3079:3111   */\n      slt\n        /* \"#utility.yul\":3076:3195   */\n      iszero\n      tag_196\n      jumpi\n        /* \"#utility.yul\":3114:3193   */\n      tag_197\n      tag_99\n      jump\t// in\n    tag_197:\n        /* \"#utility.yul\":3076:3195   */\n    tag_196:\n        /* \"#utility.yul\":3262:3263   */\n      0x00\n        /* \"#utility.yul\":3251:3260   */\n      dup3\n        /* \"#utility.yul\":3247:3264   */\n      add\n        /* \"#utility.yul\":3234:3265   */\n      calldataload\n        /* \"#utility.yul\":3292:3310   */\n      0xffffffffffffffff\n        /* \"#utility.yul\":3284:3290   */\n      dup2\n        /* \"#utility.yul\":3281:3311   */\n      gt\n        /* \"#utility.yul\":3278:3395   */\n      iszero\n      tag_198\n      jumpi\n        /* \"#utility.yul\":3314:3393   */\n      tag_199\n      tag_100\n      jump\t// in\n    tag_199:\n        /* \"#utility.yul\":3278:3395   */\n    tag_198:\n        /* \"#utility.yul\":3419:3482   */\n      tag_200\n        /* \"#utility.yul\":3474:3481   */\n      dup5\n        /* \"#utility.yul\":3465:3471   */\n      dup3\n        /* \"#utility.yul\":3454:3463   */\n      dup6\n        /* \"#utility.yul\":3450:3472   */\n      add\n        /* \"#utility.yul\":3419:3482   */\n      tag_110\n      jump\t// in\n    tag_200:\n        /* \"#utility.yul\":3409:3482   */\n      swap2\n      pop\n        /* \"#utility.yul\":3205:3492   */\n      pop\n        /* \"#utility.yul\":2990:3499   */\n      swap3\n      swap2\n      pop\n      pop\n      jump\t// out\n        /* \"#utility.yul\":3505:3631   */\n    tag_111:\n        /* \"#utility.yul\":3542:3549   */\n      0x00\n        /* \"#utility.yul\":3582:3624   */\n      0xffffffffffffffffffffffffffffffffffffffff\n        /* \"#utility.yul\":3575:3580   */\n      dup3\n        /* \"#utility.yul\":3571:3625   */\n      and\n        /* \"#utility.yul\":3560:3625   */\n      swap1\n      pop\n        /* \"#utility.yul\":3505:3631   */\n      swap2\n      swap1\n      pop\n      jump\t// out\n        /* \"#utility.yul\":3637:3733   */\n    tag_112:\n        /* \"#utility.yul\":3674:3681   */\n      0x00\n        /* \"#utility.yul\":3703:3727   */\n      tag_203\n        /* \"#utility.yul\":3721:3726   */\n      dup3\n        /* \"#utility.yul\":3703:3727   */\n      tag_111\n      jump\t// in\n    tag_203:\n        /* \"#utility.yul\":3692:3727   */\n      swap1\n      pop\n        /* \"#utility.yul\":3637:3733   */\n      swap2\n      swap1\n      pop\n      jump\t// out\n        /* \"#utility.yul\":3739:3857   */\n    tag_113:\n        /* \"#utility.yul\":3826:3850   */\n      tag_205\n        /* \"#utility.yul\":3844:3849   */\n      dup2\n        /* \"#utility.yul\":3826:3850   */\n      tag_112\n      jump\t// in\n    tag_205:\n        /* \"#utility.yul\":3821:3824   */\n      dup3\n        /* \"#utility.yul\":3814:3851   */\n      mstore\n        /* \"#utility.yul\":3739:3857   */\n      pop\n      pop\n      jump\t// out\n        /* \"#utility.yul\":3863:4085   */\n    tag_23:\n        /* \"#utility.yul\":3956:3960   */\n      0x00\n        /* \"#utility.yul\":3994:3996   */\n      0x20\n        /* \"#utility.yul\":3983:3992   */\n      dup3\n        /* \"#utility.yul\":3979:3997   */\n      add\n        /* \"#utility.yul\":3971:3997   */\n      swap1\n      pop\n        /* \"#utility.yul\":4007:4078   */\n      tag_207\n        /* \"#utility.yul\":4075:4076   */\n      0x00\n        /* \"#utility.yul\":4064:4073   */\n      dup4\n        /* \"#utility.yul\":4060:4077   */\n      add\n        /* \"#utility.yul\":4051:4057   */\n      dup5\n        /* \"#utility.yul\":4007:4078   */\n      tag_113\n      jump\t// in\n    tag_207:\n        /* \"#utility.yul\":3863:4085   */\n      swap3\n      swap2\n      pop\n      pop\n      jump\t// out\n        /* \"#utility.yul\":4091:4190   */\n    tag_114:\n        /* \"#utility.yul\":4143:4149   */\n      0x00\n        /* \"#utility.yul\":4177:4182   */\n      dup2\n        /* \"#utility.yul\":4171:4183   */\n      mload\n        /* \"#utility.yul\":4161:4183   */\n      swap1\n      pop\n        /* \"#utility.yul\":4091:4190   */\n      swap2\n      swap1\n      pop\n      jump\t// out\n        /* \"#utility.yul\":4196:4365   */\n    tag_115:\n        /* \"#utility.yul\":4280:4291   */\n      0x00\n        /* \"#utility.yul\":4314:4320   */\n      dup3\n        /* \"#utility.yul\":4309:4312   */\n      dup3\n        /* \"#utility.yul\":4302:4321   */\n      mstore\n        /* \"#utility.yul\":4354:4358   */\n      0x20\n        /* \"#utility.yul\":4349:4352   */\n      dup3\n        /* \"#utility.yul\":4345:4359   */\n      add\n        /* \"#utility.yul\":4330:4359   */\n      swap1\n      pop\n        /* \"#utility.yul\":4196:4365   */\n      swap3\n      swap2\n      pop\n      pop\n      jump\t// out\n        /* \"#utility.yul\":4371:4510   */\n    tag_116:\n        /* \"#utility.yul\":4460:4466   */\n      dup3\n        /* \"#utility.yul\":4455:4458   */\n      dup2\n        /* \"#utility.yul\":4450:4453   */\n      dup4\n        /* \"#utility.yul\":4444:4467   */\n      mcopy\n        /* \"#utility.yul\":4501:4502   */\n      0x00\n        /* \"#utility.yul\":4492:4498   */\n      dup4\n        /* \"#utility.yul\":4487:4490   */\n      dup4\n        /* \"#utility.yul\":4483:4499   */\n      add\n        /* \"#utility.yul\":4476:4503   */\n      mstore\n        /* \"#utility.yul\":4371:4510   */\n      pop\n      pop\n      pop\n      jump\t// out\n        /* \"#utility.yul\":4516:4893   */\n    tag_117:\n        /* \"#utility.yul\":4604:4607   */\n      0x00\n        /* \"#utility.yul\":4632:4671   */\n      tag_212\n        /* \"#utility.yul\":4665:4670   */\n      dup3\n        /* \"#utility.yul\":4632:4671   */\n      tag_114\n      jump\t// in\n    tag_212:\n        /* \"#utility.yul\":4687:4758   */\n      tag_213\n        /* \"#utility.yul\":4751:4757   */\n      dup2\n        /* \"#utility.yul\":4746:4749   */\n      dup6\n        /* \"#utility.yul\":4687:4758   */\n      tag_115\n      jump\t// in\n    tag_213:\n        /* \"#utility.yul\":4680:4758   */\n      swap4\n      pop\n        /* \"#utility.yul\":4767:4832   */\n      tag_214\n        /* \"#utility.yul\":4825:4831   */\n      dup2\n        /* \"#utility.yul\":4820:4823   */\n      dup6\n        /* \"#utility.yul\":4813:4817   */\n      0x20\n        /* \"#utility.yul\":4806:4811   */\n      dup7\n        /* \"#utility.yul\":4802:4818   */\n      add\n        /* \"#utility.yul\":4767:4832   */\n      tag_116\n      jump\t// in\n    tag_214:\n        /* \"#utility.yul\":4857:4886   */\n      tag_215\n        /* \"#utility.yul\":4879:4885   */\n      dup2\n        /* \"#utility.yul\":4857:4886   */\n      tag_103\n      jump\t// in\n    tag_215:\n        /* \"#utility.yul\":4852:4855   */\n      dup5\n        /* \"#utility.yul\":4848:4887   */\n      add\n        /* \"#utility.yul\":4841:4887   */\n      swap2\n      pop\n        /* \"#utility.yul\":4608:4893   */\n      pop\n        /* \"#utility.yul\":4516:4893   */\n      swap3\n      swap2\n      pop\n      pop\n      jump\t// out\n        /* \"#utility.yul\":4899:5003   */\n    tag_118:\n        /* \"#utility.yul\":4944:4951   */\n      0x00\n        /* \"#utility.yul\":4973:4997   */\n      tag_217\n        /* \"#utility.yul\":4991:4996   */\n      dup3\n        /* \"#utility.yul\":4973:4997   */\n      tag_111\n      jump\t// in\n    tag_217:\n        /* \"#utility.yul\":4962:4997   */\n      swap1\n      pop\n        /* \"#utility.yul\":4899:5003   */\n      swap2\n      swap1\n      pop\n      jump\t// out\n        /* \"#utility.yul\":5009:5151   */\n    tag_119:\n        /* \"#utility.yul\":5112:5144   */\n      tag_219\n        /* \"#utility.yul\":5138:5143   */\n      dup2\n        /* \"#utility.yul\":5112:5144   */\n      tag_118\n      jump\t// in\n    tag_219:\n        /* \"#utility.yul\":5107:5110   */\n      dup3\n        /* \"#utility.yul\":5100:5145   */\n      mstore\n        /* \"#utility.yul\":5009:5151   */\n      pop\n      pop\n      jump\t// out\n        /* \"#utility.yul\":5157:5612   */\n    tag_31:\n        /* \"#utility.yul\":5314:5318   */\n      0x00\n        /* \"#utility.yul\":5352:5354   */\n      0x40\n        /* \"#utility.yul\":5341:5350   */\n      dup3\n        /* \"#utility.yul\":5337:5355   */\n      add\n        /* \"#utility.yul\":5329:5355   */\n      swap1\n      pop\n        /* \"#utility.yul\":5401:5410   */\n      dup2\n        /* \"#utility.yul\":5395:5399   */\n      dup2\n        /* \"#utility.yul\":5391:5411   */\n      sub\n        /* \"#utility.yul\":5387:5388   */\n      0x00\n        /* \"#utility.yul\":5376:5385   */\n      dup4\n        /* \"#utility.yul\":5372:5389   */\n      add\n        /* \"#utility.yul\":5365:5412   */\n      mstore\n        /* \"#utility.yul\":5429:5507   */\n      tag_221\n        /* \"#utility.yul\":5502:5506   */\n      dup2\n        /* \"#utility.yul\":5493:5499   */\n      dup6\n        /* \"#utility.yul\":5429:5507   */\n      tag_117\n      jump\t// in\n    tag_221:\n        /* \"#utility.yul\":5421:5507   */\n      swap1\n      pop\n        /* \"#utility.yul\":5517:5605   */\n      tag_222\n        /* \"#utility.yul\":5601:5603   */\n      0x20\n        /* \"#utility.yul\":5590:5599   */\n      dup4\n        /* \"#utility.yul\":5586:5604   */\n      add\n        /* \"#utility.yul\":5577:5583   */\n      dup5\n        /* \"#utility.yul\":5517:5605   */\n      tag_119\n      jump\t// in\n    tag_222:\n        /* \"#utility.yul\":5157:5612   */\n      swap4\n      swap3\n      pop\n      pop\n      pop\n      jump\t// out\n        /* \"#utility.yul\":5618:5740   */\n    tag_120:\n        /* \"#utility.yul\":5691:5715   */\n      tag_224\n        /* \"#utility.yul\":5709:5714   */\n      dup2\n        /* \"#utility.yul\":5691:5715   */\n      tag_96\n      jump\t// in\n    tag_224:\n        /* \"#utility.yul\":5684:5689   */\n      dup2\n        /* \"#utility.yul\":5681:5716   */\n      eq\n        /* \"#utility.yul\":5671:5734   */\n      tag_225\n      jumpi\n        /* \"#utility.yul\":5730:5731   */\n      0x00\n        /* \"#utility.yul\":5727:5728   */\n      dup1\n        /* \"#utility.yul\":5720:5732   */\n      revert\n        /* \"#utility.yul\":5671:5734   */\n    tag_225:\n        /* \"#utility.yul\":5618:5740   */\n      pop\n      jump\t// out\n        /* \"#utility.yul\":5746:5885   */\n    tag_121:\n        /* \"#utility.yul\":5792:5797   */\n      0x00\n        /* \"#utility.yul\":5830:5836   */\n      dup2\n        /* \"#utility.yul\":5817:5837   */\n      calldataload\n        /* \"#utility.yul\":5808:5837   */\n      swap1\n      pop\n        /* \"#utility.yul\":5846:5879   */\n      tag_227\n        /* \"#utility.yul\":5873:5878   */\n      dup2\n        /* \"#utility.yul\":5846:5879   */\n      tag_120\n      jump\t// in\n    tag_227:\n        /* \"#utility.yul\":5746:5885   */\n      swap3\n      swap2\n      pop\n      pop\n      jump\t// out\n        /* \"#utility.yul\":5891:6220   */\n    tag_35:\n        /* \"#utility.yul\":5950:5956   */\n      0x00\n        /* \"#utility.yul\":5999:6001   */\n      0x20\n        /* \"#utility.yul\":5987:5996   */\n      dup3\n        /* \"#utility.yul\":5978:5985   */\n      dup5\n        /* \"#utility.yul\":5974:5997   */\n      sub\n        /* \"#utility.yul\":5970:6002   */\n      slt\n        /* \"#utility.yul\":5967:6086   */\n      iszero\n      tag_229\n      jumpi\n        /* \"#utility.yul\":6005:6084   */\n      tag_230\n      tag_99\n      jump\t// in\n    tag_230:\n        /* \"#utility.yul\":5967:6086   */\n    tag_229:\n        /* \"#utility.yul\":6125:6126   */\n      0x00\n        /* \"#utility.yul\":6150:6203   */\n      tag_231\n        /* \"#utility.yul\":6195:6202   */\n      dup5\n        /* \"#utility.yul\":6186:6192   */\n      dup3\n        /* \"#utility.yul\":6175:6184   */\n      dup6\n        /* \"#utility.yul\":6171:6193   */\n      add\n        /* \"#utility.yul\":6150:6203   */\n      tag_121\n      jump\t// in\n    tag_231:\n        /* \"#utility.yul\":6140:6203   */\n      swap2\n      pop\n        /* \"#utility.yul\":6096:6213   */\n      pop\n        /* \"#utility.yul\":5891:6220   */\n      swap3\n      swap2\n      pop\n      pop\n      jump\t// out\n        /* \"#utility.yul\":6226:6361   */\n    tag_122:\n        /* \"#utility.yul\":6314:6320   */\n      0x00\n        /* \"#utility.yul\":6348:6353   */\n      dup2\n        /* \"#utility.yul\":6342:6354   */\n      mload\n        /* \"#utility.yul\":6332:6354   */\n      swap1\n      pop\n        /* \"#utility.yul\":6226:6361   */\n      swap2\n      swap1\n      pop\n      jump\t// out\n        /* \"#utility.yul\":6367:6572   */\n    tag_123:\n        /* \"#utility.yul\":6487:6498   */\n      0x00\n        /* \"#utility.yul\":6521:6527   */\n      dup3\n        /* \"#utility.yul\":6516:6519   */\n      dup3\n        /* \"#utility.yul\":6509:6528   */\n      mstore\n        /* \"#utility.yul\":6561:6565   */\n      0x20\n        /* \"#utility.yul\":6556:6559   */\n      dup3\n        /* \"#utility.yul\":6552:6566   */\n      add\n        /* \"#utility.yul\":6537:6566   */\n      swap1\n      pop\n        /* \"#utility.yul\":6367:6572   */\n      swap3\n      swap2\n      pop\n      pop\n      jump\t// out\n        /* \"#utility.yul\":6578:6731   */\n    tag_124:\n        /* \"#utility.yul\":6666:6670   */\n      0x00\n        /* \"#utility.yul\":6689:6692   */\n      dup2\n        /* \"#utility.yul\":6681:6692   */\n      swap1\n      pop\n        /* \"#utility.yul\":6719:6723   */\n      0x20\n        /* \"#utility.yul\":6714:6717   */\n      dup3\n        /* \"#utility.yul\":6710:6724   */\n      add\n        /* \"#utility.yul\":6702:6724   */\n      swap1\n      pop\n        /* \"#utility.yul\":6578:6731   */\n      swap2\n      swap1\n      pop\n      jump\t// out\n        /* \"#utility.yul\":6737:6896   */\n    tag_125:\n        /* \"#utility.yul\":6811:6822   */\n      0x00\n        /* \"#utility.yul\":6845:6851   */\n      dup3\n        /* \"#utility.yul\":6840:6843   */\n      dup3\n        /* \"#utility.yul\":6833:6852   */\n      mstore\n        /* \"#utility.yul\":6885:6889   */\n      0x20\n        /* \"#utility.yul\":6880:6883   */\n      dup3\n        /* \"#utility.yul\":6876:6890   */\n      add\n        /* \"#utility.yul\":6861:6890   */\n      swap1\n      pop\n        /* \"#utility.yul\":6737:6896   */\n      swap3\n      swap2\n      pop\n      pop\n      jump\t// out\n        /* \"#utility.yul\":6902:7259   */\n    tag_126:\n        /* \"#utility.yul\":6980:6983   */\n      0x00\n        /* \"#utility.yul\":7008:7047   */\n      tag_237\n        /* \"#utility.yul\":7041:7046   */\n      dup3\n        /* \"#utility.yul\":7008:7047   */\n      tag_114\n      jump\t// in\n    tag_237:\n        /* \"#utility.yul\":7063:7124   */\n      tag_238\n        /* \"#utility.yul\":7117:7123   */\n      dup2\n        /* \"#utility.yul\":7112:7115   */\n      dup6\n        /* \"#utility.yul\":7063:7124   */\n      tag_125\n      jump\t// in\n    tag_238:\n        /* \"#utility.yul\":7056:7124   */\n      swap4\n      pop\n        /* \"#utility.yul\":7133:7198   */\n      tag_239\n        /* \"#utility.yul\":7191:7197   */\n      dup2\n        /* \"#utility.yul\":7186:7189   */\n      dup6\n        /* \"#utility.yul\":7179:7183   */\n      0x20\n        /* \"#utility.yul\":7172:7177   */\n      dup7\n        /* \"#utility.yul\":7168:7184   */\n      add\n        /* \"#utility.yul\":7133:7198   */\n      tag_116\n      jump\t// in\n    tag_239:\n        /* \"#utility.yul\":7223:7252   */\n      tag_240\n        /* \"#utility.yul\":7245:7251   */\n      dup2\n        /* \"#utility.yul\":7223:7252   */\n      tag_103\n      jump\t// in\n    tag_240:\n        /* \"#utility.yul\":7218:7221   */\n      dup5\n        /* \"#utility.yul\":7214:7253   */\n      add\n        /* \"#utility.yul\":7207:7253   */\n      swap2\n      pop\n        /* \"#utility.yul\":6984:7259   */\n      pop\n        /* \"#utility.yul\":6902:7259   */\n      swap3\n      swap2\n      pop\n      pop\n      jump\t// out\n        /* \"#utility.yul\":7265:7397   */\n    tag_127:\n        /* \"#utility.yul\":7358:7390   */\n      tag_242\n        /* \"#utility.yul\":7384:7389   */\n      dup2\n        /* \"#utility.yul\":7358:7390   */\n      tag_118\n      jump\t// in\n    tag_242:\n        /* \"#utility.yul\":7353:7356   */\n      dup3\n        /* \"#utility.yul\":7346:7391   */\n      mstore\n        /* \"#utility.yul\":7265:7397   */\n      pop\n      pop\n      jump\t// out\n        /* \"#utility.yul\":7451:8055   */\n    tag_128:\n        /* \"#utility.yul\":7552:7555   */\n      0x00\n        /* \"#utility.yul\":7588:7592   */\n      0x40\n        /* \"#utility.yul\":7583:7586   */\n      dup4\n        /* \"#utility.yul\":7579:7593   */\n      add\n        /* \"#utility.yul\":7675:7679   */\n      0x00\n        /* \"#utility.yul\":7668:7673   */\n      dup4\n        /* \"#utility.yul\":7664:7680   */\n      add\n        /* \"#utility.yul\":7658:7681   */\n      mload\n        /* \"#utility.yul\":7728:7731   */\n      dup5\n        /* \"#utility.yul\":7722:7726   */\n      dup3\n        /* \"#utility.yul\":7718:7732   */\n      sub\n        /* \"#utility.yul\":7711:7715   */\n      0x00\n        /* \"#utility.yul\":7706:7709   */\n      dup7\n        /* \"#utility.yul\":7702:7716   */\n      add\n        /* \"#utility.yul\":7695:7733   */\n      mstore\n        /* \"#utility.yul\":7754:7827   */\n      tag_244\n        /* \"#utility.yul\":7822:7826   */\n      dup3\n        /* \"#utility.yul\":7808:7820   */\n      dup3\n        /* \"#utility.yul\":7754:7827   */\n      tag_126\n      jump\t// in\n    tag_244:\n        /* \"#utility.yul\":7746:7827   */\n      swap2\n      pop\n        /* \"#utility.yul\":7603:7838   */\n      pop\n        /* \"#utility.yul\":7920:7924   */\n      0x20\n        /* \"#utility.yul\":7913:7918   */\n      dup4\n        /* \"#utility.yul\":7909:7925   */\n      add\n        /* \"#utility.yul\":7903:7926   */\n      mload\n        /* \"#utility.yul\":7939:8018   */\n      tag_245\n        /* \"#utility.yul\":8012:8016   */\n      0x20\n        /* \"#utility.yul\":8007:8010   */\n      dup7\n        /* \"#utility.yul\":8003:8017   */\n      add\n        /* \"#utility.yul\":7989:8001   */\n      dup3\n        /* \"#utility.yul\":7939:8018   */\n      tag_127\n      jump\t// in\n    tag_245:\n        /* \"#utility.yul\":7848:8028   */\n      pop\n        /* \"#utility.yul\":8045:8049   */\n      dup1\n        /* \"#utility.yul\":8038:8049   */\n      swap2\n      pop\n        /* \"#utility.yul\":7557:8055   */\n      pop\n        /* \"#utility.yul\":7451:8055   */\n      swap3\n      swap2\n      pop\n      pop\n      jump\t// out\n        /* \"#utility.yul\":8061:8301   */\n    tag_129:\n        /* \"#utility.yul\":8172:8182   */\n      0x00\n        /* \"#utility.yul\":8207:8295   */\n      tag_247\n        /* \"#utility.yul\":8291:8294   */\n      dup4\n        /* \"#utility.yul\":8283:8289   */\n      dup4\n        /* \"#utility.yul\":8207:8295   */\n      tag_128\n      jump\t// in\n    tag_247:\n        /* \"#utility.yul\":8193:8295   */\n      swap1\n      pop\n        /* \"#utility.yul\":8061:8301   */\n      swap3\n      swap2\n      pop\n      pop\n      jump\t// out\n        /* \"#utility.yul\":8307:8441   */\n    tag_130:\n        /* \"#utility.yul\":8398:8402   */\n      0x00\n        /* \"#utility.yul\":8430:8434   */\n      0x20\n        /* \"#utility.yul\":8425:8428   */\n      dup3\n        /* \"#utility.yul\":8421:8435   */\n      add\n        /* \"#utility.yul\":8413:8435   */\n      swap1\n      pop\n        /* \"#utility.yul\":8307:8441   */\n      swap2\n      swap1\n      pop\n      jump\t// out\n        /* \"#utility.yul\":8499:9578   */\n    tag_131:\n        /* \"#utility.yul\":8660:8663   */\n      0x00\n        /* \"#utility.yul\":8689:8764   */\n      tag_250\n        /* \"#utility.yul\":8758:8763   */\n      dup3\n        /* \"#utility.yul\":8689:8764   */\n      tag_122\n      jump\t// in\n    tag_250:\n        /* \"#utility.yul\":8780:8887   */\n      tag_251\n        /* \"#utility.yul\":8880:8886   */\n      dup2\n        /* \"#utility.yul\":8875:8878   */\n      dup6\n        /* \"#utility.yul\":8780:8887   */\n      tag_123\n      jump\t// in\n    tag_251:\n        /* \"#utility.yul\":8773:8887   */\n      swap4\n      pop\n        /* \"#utility.yul\":8913:8916   */\n      dup4\n        /* \"#utility.yul\":8958:8962   */\n      0x20\n        /* \"#utility.yul\":8950:8956   */\n      dup3\n        /* \"#utility.yul\":8946:8963   */\n      mul\n        /* \"#utility.yul\":8941:8944   */\n      dup6\n        /* \"#utility.yul\":8937:8964   */\n      add\n        /* \"#utility.yul\":8988:9065   */\n      tag_252\n        /* \"#utility.yul\":9059:9064   */\n      dup6\n        /* \"#utility.yul\":8988:9065   */\n      tag_124\n      jump\t// in\n    tag_252:\n        /* \"#utility.yul\":9088:9095   */\n      dup1\n        /* \"#utility.yul\":9119:9120   */\n      0x00\n        /* \"#utility.yul\":9104:9533   */\n    tag_253:\n        /* \"#utility.yul\":9129:9135   */\n      dup6\n        /* \"#utility.yul\":9126:9127   */\n      dup2\n        /* \"#utility.yul\":9123:9136   */\n      lt\n        /* \"#utility.yul\":9104:9533   */\n      iszero\n      tag_255\n      jumpi\n        /* \"#utility.yul\":9200:9209   */\n      dup5\n        /* \"#utility.yul\":9194:9198   */\n      dup5\n        /* \"#utility.yul\":9190:9210   */\n      sub\n        /* \"#utility.yul\":9185:9188   */\n      dup10\n        /* \"#utility.yul\":9178:9211   */\n      mstore\n        /* \"#utility.yul\":9251:9257   */\n      dup2\n        /* \"#utility.yul\":9245:9258   */\n      mload\n        /* \"#utility.yul\":9279:9385   */\n      tag_256\n        /* \"#utility.yul\":9380:9384   */\n      dup6\n        /* \"#utility.yul\":9365:9378   */\n      dup3\n        /* \"#utility.yul\":9279:9385   */\n      tag_129\n      jump\t// in\n    tag_256:\n        /* \"#utility.yul\":9271:9385   */\n      swap5\n      pop\n        /* \"#utility.yul\":9408:9489   */\n      tag_257\n        /* \"#utility.yul\":9482:9488   */\n      dup4\n        /* \"#utility.yul\":9408:9489   */\n      tag_130\n      jump\t// in\n    tag_257:\n        /* \"#utility.yul\":9398:9489   */\n      swap3\n      pop\n        /* \"#utility.yul\":9518:9522   */\n      0x20\n        /* \"#utility.yul\":9513:9516   */\n      dup11\n        /* \"#utility.yul\":9509:9523   */\n      add\n        /* \"#utility.yul\":9502:9523   */\n      swap10\n      pop\n        /* \"#utility.yul\":9164:9533   */\n      pop\n        /* \"#utility.yul\":9151:9152   */\n      0x01\n        /* \"#utility.yul\":9148:9149   */\n      dup2\n        /* \"#utility.yul\":9144:9153   */\n      add\n        /* \"#utility.yul\":9139:9153   */\n      swap1\n      pop\n        /* \"#utility.yul\":9104:9533   */\n      jump(tag_253)\n    tag_255:\n        /* \"#utility.yul\":9108:9122   */\n      pop\n        /* \"#utility.yul\":9549:9553   */\n      dup3\n        /* \"#utility.yul\":9542:9553   */\n      swap8\n      pop\n        /* \"#utility.yul\":9569:9572   */\n      dup8\n        /* \"#utility.yul\":9562:9572   */\n      swap6\n      pop\n        /* \"#utility.yul\":8665:9578   */\n      pop\n      pop\n      pop\n      pop\n      pop\n        /* \"#utility.yul\":8499:9578   */\n      swap3\n      swap2\n      pop\n      pop\n      jump\t// out\n        /* \"#utility.yul\":9584:10041   */\n    tag_42:\n        /* \"#utility.yul\":9769:9773   */\n      0x00\n        /* \"#utility.yul\":9807:9809   */\n      0x20\n        /* \"#utility.yul\":9796:9805   */\n      dup3\n        /* \"#utility.yul\":9792:9810   */\n      add\n        /* \"#utility.yul\":9784:9810   */\n      swap1\n      pop\n        /* \"#utility.yul\":9856:9865   */\n      dup2\n        /* \"#utility.yul\":9850:9854   */\n      dup2\n        /* \"#utility.yul\":9846:9866   */\n      sub\n        /* \"#utility.yul\":9842:9843   */\n      0x00\n        /* \"#utility.yul\":9831:9840   */\n      dup4\n        /* \"#utility.yul\":9827:9844   */\n      add\n        /* \"#utility.yul\":9820:9867   */\n      mstore\n        /* \"#utility.yul\":9884:10034   */\n      tag_259\n        /* \"#utility.yul\":10029:10033   */\n      dup2\n        /* \"#utility.yul\":10020:10026   */\n      dup5\n        /* \"#utility.yul\":9884:10034   */\n      tag_131\n      jump\t// in\n    tag_259:\n        /* \"#utility.yul\":9876:10034   */\n      swap1\n      pop\n        /* \"#utility.yul\":9584:10041   */\n      swap3\n      swap2\n      pop\n      pop\n      jump\t// out\n        /* \"#utility.yul\":10047:10220   */\n    tag_132:\n        /* \"#utility.yul\":10187:10212   */\n      0x6f776e65722063616e2774207061727469636970617465000000000000000000\n        /* \"#utility.yul\":10183:10184   */\n      0x00\n        /* \"#utility.yul\":10175:10181   */\n      dup3\n        /* \"#utility.yul\":10171:10185   */\n      add\n        /* \"#utility.yul\":10164:10213   */\n      mstore\n        /* \"#utility.yul\":10047:10220   */\n      pop\n      jump\t// out\n        /* \"#utility.yul\":10226:10592   */\n    tag_133:\n        /* \"#utility.yul\":10368:10371   */\n      0x00\n        /* \"#utility.yul\":10389:10456   */\n      tag_262\n        /* \"#utility.yul\":10453:10455   */\n      0x17\n        /* \"#utility.yul\":10448:10451   */\n      dup4\n        /* \"#utility.yul\":10389:10456   */\n      tag_115\n      jump\t// in\n    tag_262:\n        /* \"#utility.yul\":10382:10456   */\n      swap2\n      pop\n        /* \"#utility.yul\":10465:10558   */\n      tag_263\n        /* \"#utility.yul\":10554:10557   */\n      dup3\n        /* \"#utility.yul\":10465:10558   */\n      tag_132\n      jump\t// in\n    tag_263:\n        /* \"#utility.yul\":10583:10585   */\n      0x20\n        /* \"#utility.yul\":10578:10581   */\n      dup3\n        /* \"#utility.yul\":10574:10586   */\n      add\n        /* \"#utility.yul\":10567:10586   */\n      swap1\n      pop\n        /* \"#utility.yul\":10226:10592   */\n      swap2\n      swap1\n      pop\n      jump\t// out\n        /* \"#utility.yul\":10598:11017   */\n    tag_47:\n        /* \"#utility.yul\":10764:10768   */\n      0x00\n        /* \"#utility.yul\":10802:10804   */\n      0x20\n        /* \"#utility.yul\":10791:10800   */\n      dup3\n        /* \"#utility.yul\":10787:10805   */\n      add\n        /* \"#utility.yul\":10779:10805   */\n      swap1\n      pop\n        /* \"#utility.yul\":10851:10860   */\n      dup2\n        /* \"#utility.yul\":10845:10849   */\n      dup2\n        /* \"#utility.yul\":10841:10861   */\n      sub\n        /* \"#utility.yul\":10837:10838   */\n      0x00\n        /* \"#utility.yul\":10826:10835   */\n      dup4\n        /* \"#utility.yul\":10822:10839   */\n      add\n        /* \"#utility.yul\":10815:10862   */\n      mstore\n        /* \"#utility.yul\":10879:11010   */\n      tag_265\n        /* \"#utility.yul\":11005:11009   */\n      dup2\n        /* \"#utility.yul\":10879:11010   */\n      tag_133\n      jump\t// in\n    tag_265:\n        /* \"#utility.yul\":10871:11010   */\n      swap1\n      pop\n        /* \"#utility.yul\":10598:11017   */\n      swap2\n      swap1\n      pop\n      jump\t// out\n        /* \"#utility.yul\":11023:11203   */\n    tag_134:\n        /* \"#utility.yul\":11163:11195   */\n      0x312065746820726571756972656420666f722070617274696369706174650000\n        /* \"#utility.yul\":11159:11160   */\n      0x00\n        /* \"#utility.yul\":11151:11157   */\n      dup3\n        /* \"#utility.yul\":11147:11161   */\n      add\n        /* \"#utility.yul\":11140:11196   */\n      mstore\n        /* \"#utility.yul\":11023:11203   */\n      pop\n      jump\t// out\n        /* \"#utility.yul\":11209:11575   */\n    tag_135:\n        /* \"#utility.yul\":11351:11354   */\n      0x00\n        /* \"#utility.yul\":11372:11439   */\n      tag_268\n        /* \"#utility.yul\":11436:11438   */\n      0x1e\n        /* \"#utility.yul\":11431:11434   */\n      dup4\n        /* \"#utility.yul\":11372:11439   */\n      tag_115\n      jump\t// in\n    tag_268:\n        /* \"#utility.yul\":11365:11439   */\n      swap2\n      pop\n        /* \"#utility.yul\":11448:11541   */\n      tag_269\n        /* \"#utility.yul\":11537:11540   */\n      dup3\n        /* \"#utility.yul\":11448:11541   */\n      tag_134\n      jump\t// in\n    tag_269:\n        /* \"#utility.yul\":11566:11568   */\n      0x20\n        /* \"#utility.yul\":11561:11564   */\n      dup3\n        /* \"#utility.yul\":11557:11569   */\n      add\n        /* \"#utility.yul\":11550:11569   */\n      swap1\n      pop\n        /* \"#utility.yul\":11209:11575   */\n      swap2\n      swap1\n      pop\n      jump\t// out\n        /* \"#utility.yul\":11581:12000   */\n    tag_50:\n        /* \"#utility.yul\":11747:11751   */\n      0x00\n        /* \"#utility.yul\":11785:11787   */\n      0x20\n        /* \"#utility.yul\":11774:11783   */\n      dup3\n        /* \"#utility.yul\":11770:11788   */\n      add\n        /* \"#utility.yul\":11762:11788   */\n      swap1\n      pop\n        /* \"#utility.yul\":11834:11843   */\n      dup2\n        /* \"#utility.yul\":11828:11832   */\n      dup2\n        /* \"#utility.yul\":11824:11844   */\n      sub\n        /* \"#utility.yul\":11820:11821   */\n      0x00\n        /* \"#utility.yul\":11809:11818   */\n      dup4\n        /* \"#utility.yul\":11805:11822   */\n      add\n        /* \"#utility.yul\":11798:11845   */\n      mstore\n        /* \"#utility.yul\":11862:11993   */\n      tag_271\n        /* \"#utility.yul\":11988:11992   */\n      dup2\n        /* \"#utility.yul\":11862:11993   */\n      tag_135\n      jump\t// in\n    tag_271:\n        /* \"#utility.yul\":11854:11993   */\n      swap1\n      pop\n        /* \"#utility.yul\":11581:12000   */\n      swap2\n      swap1\n      pop\n      jump\t// out\n        /* \"#utility.yul\":12006:12186   */\n    tag_136:\n        /* \"#utility.yul\":12054:12131   */\n      0x4e487b7100000000000000000000000000000000000000000000000000000000\n        /* \"#utility.yul\":12051:12052   */\n      0x00\n        /* \"#utility.yul\":12044:12132   */\n      mstore\n        /* \"#utility.yul\":12151:12155   */\n      0x22\n        /* \"#utility.yul\":12148:12149   */\n      0x04\n        /* \"#utility.yul\":12141:12156   */\n      mstore\n        /* \"#utility.yul\":12175:12179   */\n      0x24\n        /* \"#utility.yul\":12172:12173   */\n      0x00\n        /* \"#utility.yul\":12165:12180   */\n      revert\n        /* \"#utility.yul\":12192:12512   */\n    tag_75:\n        /* \"#utility.yul\":12236:12242   */\n      0x00\n        /* \"#utility.yul\":12273:12274   */\n      0x02\n        /* \"#utility.yul\":12267:12271   */\n      dup3\n        /* \"#utility.yul\":12263:12275   */\n      div\n        /* \"#utility.yul\":12253:12275   */\n      swap1\n      pop\n        /* \"#utility.yul\":12320:12321   */\n      0x01\n        /* \"#utility.yul\":12314:12318   */\n      dup3\n        /* \"#utility.yul\":12310:12322   */\n      and\n        /* \"#utility.yul\":12341:12359   */\n      dup1\n        /* \"#utility.yul\":12331:12412   */\n      tag_274\n      jumpi\n        /* \"#utility.yul\":12397:12401   */\n      0x7f\n        /* \"#utility.yul\":12389:12395   */\n      dup3\n        /* \"#utility.yul\":12385:12402   */\n      and\n        /* \"#utility.yul\":12375:12402   */\n      swap2\n      pop\n        /* \"#utility.yul\":12331:12412   */\n    tag_274:\n        /* \"#utility.yul\":12459:12461   */\n      0x20\n        /* \"#utility.yul\":12451:12457   */\n      dup3\n        /* \"#utility.yul\":12448:12462   */\n      lt\n        /* \"#utility.yul\":12428:12446   */\n      dup2\n        /* \"#utility.yul\":12425:12463   */\n      sub\n        /* \"#utility.yul\":12422:12506   */\n      tag_275\n      jumpi\n        /* \"#utility.yul\":12478:12496   */\n      tag_276\n      tag_136\n      jump\t// in\n    tag_276:\n        /* \"#utility.yul\":12422:12506   */\n    tag_275:\n        /* \"#utility.yul\":12243:12512   */\n      pop\n        /* \"#utility.yul\":12192:12512   */\n      swap2\n      swap1\n      pop\n      jump\t// out\n        /* \"#utility.yul\":12518:12659   */\n    tag_137:\n        /* \"#utility.yul\":12567:12571   */\n      0x00\n        /* \"#utility.yul\":12590:12593   */\n      dup2\n        /* \"#utility.yul\":12582:12593   */\n      swap1\n      pop\n        /* \"#utility.yul\":12613:12616   */\n      dup2\n        /* \"#utility.yul\":12610:12611   */\n      0x00\n        /* \"#utility.yul\":12603:12617   */\n      mstore\n        /* \"#utility.yul\":12647:12651   */\n      0x20\n        /* \"#utility.yul\":12644:12645   */\n      0x00\n        /* \"#utility.yul\":12634:12652   */\n      keccak256\n        /* \"#utility.yul\":12626:12652   */\n      swap1\n      pop\n        /* \"#utility.yul\":12518:12659   */\n      swap2\n      swap1\n      pop\n      jump\t// out\n        /* \"#utility.yul\":12665:12758   */\n    tag_138:\n        /* \"#utility.yul\":12702:12708   */\n      0x00\n        /* \"#utility.yul\":12749:12751   */\n      0x20\n        /* \"#utility.yul\":12744:12746   */\n      0x1f\n        /* \"#utility.yul\":12737:12742   */\n      dup4\n        /* \"#utility.yul\":12733:12747   */\n      add\n        /* \"#utility.yul\":12729:12752   */\n      div\n        /* \"#utility.yul\":12719:12752   */\n      swap1\n      pop\n        /* \"#utility.yul\":12665:12758   */\n      swap2\n      swap1\n      pop\n      jump\t// out\n        /* \"#utility.yul\":12764:12871   */\n    tag_139:\n        /* \"#utility.yul\":12808:12816   */\n      0x00\n        /* \"#utility.yul\":12858:12863   */\n      dup3\n        /* \"#utility.yul\":12852:12856   */\n      dup3\n        /* \"#utility.yul\":12848:12864   */\n      shl\n        /* \"#utility.yul\":12827:12864   */\n      swap1\n      pop\n        /* \"#utility.yul\":12764:12871   */\n      swap3\n      swap2\n      pop\n      pop\n      jump\t// out\n        /* \"#utility.yul\":12877:13270   */\n    tag_140:\n        /* \"#utility.yul\":12946:12952   */\n      0x00\n        /* \"#utility.yul\":12996:12997   */\n      0x08\n        /* \"#utility.yul\":12984:12994   */\n      dup4\n        /* \"#utility.yul\":12980:12998   */\n      mul\n        /* \"#utility.yul\":13019:13116   */\n      tag_281\n        /* \"#utility.yul\":13049:13115   */\n      0xffffffffffffffffffffffffffffffffffffffffffffffffffffffffffffffff\n        /* \"#utility.yul\":13038:13047   */\n      dup3\n        /* \"#utility.yul\":13019:13116   */\n      tag_139\n      jump\t// in\n    tag_281:\n        /* \"#utility.yul\":13137:13176   */\n      tag_282\n        /* \"#utility.yul\":13167:13175   */\n      dup7\n        /* \"#utility.yul\":13156:13165   */\n      dup4\n        /* \"#utility.yul\":13137:13176   */\n      tag_139\n      jump\t// in\n    tag_282:\n        /* \"#utility.yul\":13125:13176   */\n      swap6\n      pop\n        /* \"#utility.yul\":13209:13213   */\n      dup1\n        /* \"#utility.yul\":13205:13214   */\n      not\n        /* \"#utility.yul\":13198:13203   */\n      dup5\n        /* \"#utility.yul\":13194:13215   */\n      and\n        /* \"#utility.yul\":13185:13215   */\n      swap4\n      pop\n        /* \"#utility.yul\":13258:13262   */\n      dup1\n        /* \"#utility.yul\":13248:13256   */\n      dup7\n        /* \"#utility.yul\":13244:13263   */\n      and\n        /* \"#utility.yul\":13237:13242   */\n      dup5\n        /* \"#utility.yul\":13234:13264   */\n      or\n        /* \"#utility.yul\":13224:13264   */\n      swap3\n      pop\n        /* \"#utility.yul\":12953:13270   */\n      pop\n      pop\n        /* \"#utility.yul\":12877:13270   */\n      swap4\n      swap3\n      pop\n      pop\n      pop\n      jump\t// out\n        /* \"#utility.yul\":13276:13336   */\n    tag_141:\n        /* \"#utility.yul\":13304:13307   */\n      0x00\n        /* \"#utility.yul\":13325:13330   */\n      dup2\n        /* \"#utility.yul\":13318:13330   */\n      swap1\n      pop\n        /* \"#utility.yul\":13276:13336   */\n      swap2\n      swap1\n      pop\n      jump\t// out\n        /* \"#utility.yul\":13342:13484   */\n    tag_142:\n        /* \"#utility.yul\":13392:13401   */\n      0x00\n        /* \"#utility.yul\":13425:13478   */\n      tag_285\n        /* \"#utility.yul\":13443:13477   */\n      tag_286\n        /* \"#utility.yul\":13452:13476   */\n      tag_287\n        /* \"#utility.yul\":13470:13475   */\n      dup5\n        /* \"#utility.yul\":13452:13476   */\n      tag_96\n      jump\t// in\n    tag_287:\n        /* \"#utility.yul\":13443:13477   */\n      tag_141\n      jump\t// in\n    tag_286:\n        /* \"#utility.yul\":13425:13478   */\n      tag_96\n      jump\t// in\n    tag_285:\n        /* \"#utility.yul\":13412:13478   */\n      swap1\n      pop\n        /* \"#utility.yul\":13342:13484   */\n      swap2\n      swap1\n      pop\n      jump\t// out\n        /* \"#utility.yul\":13490:13565   */\n    tag_143:\n        /* \"#utility.yul\":13533:13536   */\n      0x00\n        /* \"#utility.yul\":13554:13559   */\n      dup2\n        /* \"#utility.yul\":13547:13559   */\n      swap1\n      pop\n        /* \"#utility.yul\":13490:13565   */\n      swap2\n      swap1\n      pop\n      jump\t// out\n        /* \"#utility.yul\":13571:13840   */\n    tag_144:\n        /* \"#utility.yul\":13681:13720   */\n      tag_290\n        /* \"#utility.yul\":13712:13719   */\n      dup4\n        /* \"#utility.yul\":13681:13720   */\n      tag_142\n      jump\t// in\n    tag_290:\n        /* \"#utility.yul\":13742:13833   */\n      tag_291\n        /* \"#utility.yul\":13791:13832   */\n      tag_292\n        /* \"#utility.yul\":13815:13831   */\n      dup3\n        /* \"#utility.yul\":13791:13832   */\n      tag_143\n      jump\t// in\n    tag_292:\n        /* \"#utility.yul\":13783:13789   */\n      dup5\n        /* \"#utility.yul\":13776:13780   */\n      dup5\n        /* \"#utility.yul\":13770:13781   */\n      sload\n        /* \"#utility.yul\":13742:13833   */\n      tag_140\n      jump\t// in\n    tag_291:\n        /* \"#utility.yul\":13736:13740   */\n      dup3\n        /* \"#utility.yul\":13729:13834   */\n      sstore\n        /* \"#utility.yul\":13647:13840   */\n      pop\n        /* \"#utility.yul\":13571:13840   */\n      pop\n      pop\n      pop\n      jump\t// out\n        /* \"#utility.yul\":13846:13919   */\n    tag_145:\n        /* \"#utility.yul\":13891:13894   */\n      0x00\n        /* \"#utility.yul\":13846:13919   */\n      swap1\n      jump\t// out\n        /* \"#utility.yul\":13925:14114   */\n    tag_146:\n        /* \"#utility.yul\":14002:14034   */\n      tag_295\n      tag_145\n      jump\t// in\n    tag_295:\n        /* \"#utility.yul\":14043:14108   */\n      tag_296\n        /* \"#utility.yul\":14101:14107   */\n      dup2\n        /* \"#utility.yul\":14093:14099   */\n      dup5\n        /* \"#utility.yul\":14087:14091   */\n      dup5\n        /* \"#utility.yul\":14043:14108   */\n      tag_144\n      jump\t// in\n    tag_296:\n        /* \"#utility.yul\":13978:14114   */\n      pop\n        /* \"#utility.yul\":13925:14114   */\n      pop\n      pop\n      jump\t// out\n        /* \"#utility.yul\":14120:14306   */\n    tag_147:\n        /* \"#utility.yul\":14180:14300   */\n    tag_298:\n        /* \"#utility.yul\":14197:14200   */\n      dup2\n        /* \"#utility.yul\":14190:14195   */\n      dup2\n        /* \"#utility.yul\":14187:14201   */\n      lt\n        /* \"#utility.yul\":14180:14300   */\n      iszero\n      tag_300\n      jumpi\n        /* \"#utility.yul\":14251:14290   */\n      tag_301\n        /* \"#utility.yul\":14288:14289   */\n      0x00\n        /* \"#utility.yul\":14281:14286   */\n      dup3\n        /* \"#utility.yul\":14251:14290   */\n      tag_146\n      jump\t// in\n    tag_301:\n        /* \"#utility.yul\":14224:14225   */\n      0x01\n        /* \"#utility.yul\":14217:14222   */\n      dup2\n        /* \"#utility.yul\":14213:14226   */\n      add\n        /* \"#utility.yul\":14204:14226   */\n      swap1\n      pop\n        /* \"#utility.yul\":14180:14300   */\n      jump(tag_298)\n    tag_300:\n        /* \"#utility.yul\":14120:14306   */\n      pop\n      pop\n      jump\t// out\n        /* \"#utility.yul\":14312:14855   */\n    tag_148:\n        /* \"#utility.yul\":14413:14415   */\n      0x1f\n        /* \"#utility.yul\":14408:14411   */\n      dup3\n        /* \"#utility.yul\":14405:14416   */\n      gt\n        /* \"#utility.yul\":14402:14848   */\n      iszero\n      tag_303\n      jumpi\n        /* \"#utility.yul\":14447:14485   */\n      tag_304\n        /* \"#utility.yul\":14479:14484   */\n      dup2\n        /* \"#utility.yul\":14447:14485   */\n      tag_137\n      jump\t// in\n    tag_304:\n        /* \"#utility.yul\":14531:14560   */\n      tag_305\n        /* \"#utility.yul\":14549:14559   */\n      dup5\n        /* \"#utility.yul\":14531:14560   */\n      tag_138\n      jump\t// in\n    tag_305:\n        /* \"#utility.yul\":14521:14529   */\n      dup2\n        /* \"#utility.yul\":14517:14561   */\n      add\n        /* \"#utility.yul\":14714:14716   */\n      0x20\n        /* \"#utility.yul\":14702:14712   */\n      dup6\n        /* \"#utility.yul\":14699:14717   */\n      lt\n        /* \"#utility.yul\":14696:14745   */\n      iszero\n      tag_306\n      jumpi\n        /* \"#utility.yul\":14735:14743   */\n      dup2\n        /* \"#utility.yul\":14720:14743   */\n      swap1\n      pop\n        /* \"#utility.yul\":14696:14745   */\n    tag_306:\n        /* \"#utility.yul\":14758:14838   */\n      tag_307\n        /* \"#utility.yul\":14814:14836   */\n      tag_308\n        /* \"#utility.yul\":14832:14835   */\n      dup6\n        /* \"#utility.yul\":14814:14836   */\n      tag_138\n      jump\t// in\n    tag_308:\n        /* \"#utility.yul\":14804:14812   */\n      dup4\n        /* \"#utility.yul\":14800:14837   */\n      add\n        /* \"#utility.yul\":14787:14798   */\n      dup3\n        /* \"#utility.yul\":14758:14838   */\n      tag_147\n      jump\t// in\n    tag_307:\n        /* \"#utility.yul\":14417:14848   */\n      pop\n      pop\n        /* \"#utility.yul\":14402:14848   */\n    tag_303:\n        /* \"#utility.yul\":14312:14855   */\n      pop\n      pop\n      pop\n      jump\t// out\n        /* \"#utility.yul\":14861:14978   */\n    tag_149:\n        /* \"#utility.yul\":14915:14923   */\n      0x00\n        /* \"#utility.yul\":14965:14970   */\n      dup3\n        /* \"#utility.yul\":14959:14963   */\n      dup3\n        /* \"#utility.yul\":14955:14971   */\n      shr\n        /* \"#utility.yul\":14934:14971   */\n      swap1\n      pop\n        /* \"#utility.yul\":14861:14978   */\n      swap3\n      swap2\n      pop\n      pop\n      jump\t// out\n        /* \"#utility.yul\":14984:15153   */\n    tag_150:\n        /* \"#utility.yul\":15028:15034   */\n      0x00\n        /* \"#utility.yul\":15061:15112   */\n      tag_311\n        /* \"#utility.yul\":15109:15110   */\n      0x00\n        /* \"#utility.yul\":15105:15111   */\n      not\n        /* \"#utility.yul\":15097:15102   */\n      dup5\n        /* \"#utility.yul\":15094:15095   */\n      0x08\n        /* \"#utility.yul\":15090:15103   */\n      mul\n        /* \"#utility.yul\":15061:15112   */\n      tag_149\n      jump\t// in\n    tag_311:\n        /* \"#utility.yul\":15057:15113   */\n      not\n        /* \"#utility.yul\":15142:15146   */\n      dup1\n        /* \"#utility.yul\":15136:15140   */\n      dup4\n        /* \"#utility.yul\":15132:15147   */\n      and\n        /* \"#utility.yul\":15122:15147   */\n      swap2\n      pop\n        /* \"#utility.yul\":15035:15153   */\n      pop\n        /* \"#utility.yul\":14984:15153   */\n      swap3\n      swap2\n      pop\n      pop\n      jump\t// out\n        /* \"#utility.yul\":15158:15453   */\n    tag_151:\n        /* \"#utility.yul\":15234:15238   */\n      0x00\n        /* \"#utility.yul\":15380:15409   */\n      tag_313\n        /* \"#utility.yul\":15405:15408   */\n      dup4\n        /* \"#utility.yul\":15399:15403   */\n      dup4\n        /* \"#utility.yul\":15380:15409   */\n      tag_150\n      jump\t// in\n    tag_313:\n        /* \"#utility.yul\":15372:15409   */\n      swap2\n      pop\n        /* \"#utility.yul\":15442:15445   */\n      dup3\n        /* \"#utility.yul\":15439:15440   */\n      0x02\n        /* \"#utility.yul\":15435:15446   */\n      mul\n        /* \"#utility.yul\":15429:15433   */\n      dup3\n        /* \"#utility.yul\":15426:15447   */\n      or\n        /* \"#utility.yul\":15418:15447   */\n      swap1\n      pop\n        /* \"#utility.yul\":15158:15453   */\n      swap3\n      swap2\n      pop\n      pop\n      jump\t// out\n        /* \"#utility.yul\":15458:16853   */\n    tag_53:\n        /* \"#utility.yul\":15575:15612   */\n      tag_315\n        /* \"#utility.yul\":15608:15611   */\n      dup3\n        /* \"#utility.yul\":15575:15612   */\n      tag_114\n      jump\t// in\n    tag_315:\n        /* \"#utility.yul\":15677:15695   */\n      0xffffffffffffffff\n        /* \"#utility.yul\":15669:15675   */\n      dup2\n        /* \"#utility.yul\":15666:15696   */\n      gt\n        /* \"#utility.yul\":15663:15719   */\n      iszero\n      tag_316\n      jumpi\n        /* \"#utility.yul\":15699:15717   */\n      tag_317\n      tag_104\n      jump\t// in\n    tag_317:\n        /* \"#utility.yul\":15663:15719   */\n    tag_316:\n        /* \"#utility.yul\":15743:15781   */\n      tag_318\n        /* \"#utility.yul\":15775:15779   */\n      dup3\n        /* \"#utility.yul\":15769:15780   */\n      sload\n        /* \"#utility.yul\":15743:15781   */\n      tag_75\n      jump\t// in\n    tag_318:\n        /* \"#utility.yul\":15828:15895   */\n      tag_319\n        /* \"#utility.yul\":15888:15894   */\n      dup3\n        /* \"#utility.yul\":15880:15886   */\n      dup3\n        /* \"#utility.yul\":15874:15878   */\n      dup6\n        /* \"#utility.yul\":15828:15895   */\n      tag_148\n      jump\t// in\n    tag_319:\n        /* \"#utility.yul\":15922:15923   */\n      0x00\n        /* \"#utility.yul\":15946:15950   */\n      0x20\n        /* \"#utility.yul\":15933:15950   */\n      swap1\n      pop\n        /* \"#utility.yul\":15978:15980   */\n      0x1f\n        /* \"#utility.yul\":15970:15976   */\n      dup4\n        /* \"#utility.yul\":15967:15981   */\n      gt\n        /* \"#utility.yul\":15995:15996   */\n      0x01\n        /* \"#utility.yul\":15990:16608   */\n      dup2\n      eq\n      tag_321\n      jumpi\n        /* \"#utility.yul\":16652:16653   */\n      0x00\n        /* \"#utility.yul\":16669:16675   */\n      dup5\n        /* \"#utility.yul\":16666:16743   */\n      iszero\n      tag_322\n      jumpi\n        /* \"#utility.yul\":16718:16727   */\n      dup3\n        /* \"#utility.yul\":16713:16716   */\n      dup8\n        /* \"#utility.yul\":16709:16728   */\n      add\n        /* \"#utility.yul\":16703:16729   */\n      mload\n        /* \"#utility.yul\":16694:16729   */\n      swap1\n      pop\n        /* \"#utility.yul\":16666:16743   */\n    tag_322:\n        /* \"#utility.yul\":16769:16836   */\n      tag_323\n        /* \"#utility.yul\":16829:16835   */\n      dup6\n        /* \"#utility.yul\":16822:16827   */\n      dup3\n        /* \"#utility.yul\":16769:16836   */\n      tag_151\n      jump\t// in\n    tag_323:\n        /* \"#utility.yul\":16763:16767   */\n      dup7\n        /* \"#utility.yul\":16756:16837   */\n      sstore\n        /* \"#utility.yul\":16625:16847   */\n      pop\n        /* \"#utility.yul\":15960:16847   */\n      jump(tag_320)\n        /* \"#utility.yul\":15990:16608   */\n    tag_321:\n        /* \"#utility.yul\":16042:16046   */\n      0x1f\n        /* \"#utility.yul\":16038:16047   */\n      not\n        /* \"#utility.yul\":16030:16036   */\n      dup5\n        /* \"#utility.yul\":16026:16048   */\n      and\n        /* \"#utility.yul\":16076:16113   */\n      tag_324\n        /* \"#utility.yul\":16108:16112   */\n      dup7\n        /* \"#utility.yul\":16076:16113   */\n      tag_137\n      jump\t// in\n    tag_324:\n        /* \"#utility.yul\":16135:16136   */\n      0x00\n        /* \"#utility.yul\":16149:16357   */\n    tag_325:\n        /* \"#utility.yul\":16163:16170   */\n      dup3\n        /* \"#utility.yul\":16160:16161   */\n      dup2\n        /* \"#utility.yul\":16157:16171   */\n      lt\n        /* \"#utility.yul\":16149:16357   */\n      iszero\n      tag_327\n      jumpi\n        /* \"#utility.yul\":16242:16251   */\n      dup5\n        /* \"#utility.yul\":16237:16240   */\n      dup10\n        /* \"#utility.yul\":16233:16252   */\n      add\n        /* \"#utility.yul\":16227:16253   */\n      mload\n        /* \"#utility.yul\":16219:16225   */\n      dup3\n        /* \"#utility.yul\":16212:16254   */\n      sstore\n        /* \"#utility.yul\":16293:16294   */\n      0x01\n        /* \"#utility.yul\":16285:16291   */\n      dup3\n        /* \"#utility.yul\":16281:16295   */\n      add\n        /* \"#utility.yul\":16271:16295   */\n      swap2\n      pop\n        /* \"#utility.yul\":16340:16342   */\n      0x20\n        /* \"#utility.yul\":16329:16338   */\n      dup6\n        /* \"#utility.yul\":16325:16343   */\n      add\n        /* \"#utility.yul\":16312:16343   */\n      swap5\n      pop\n        /* \"#utility.yul\":16186:16190   */\n      0x20\n        /* \"#utility.yul\":16183:16184   */\n      dup2\n        /* \"#utility.yul\":16179:16191   */\n      add\n        /* \"#utility.yul\":16174:16191   */\n      swap1\n      pop\n        /* \"#utility.yul\":16149:16357   */\n      jump(tag_325)\n    tag_327:\n        /* \"#utility.yul\":16385:16391   */\n      dup7\n        /* \"#utility.yul\":16376:16383   */\n      dup4\n        /* \"#utility.yul\":16373:16392   */\n      lt\n        /* \"#utility.yul\":16370:16549   */\n      iszero\n      tag_328\n      jumpi\n        /* \"#utility.yul\":16443:16452   */\n      dup5\n        /* \"#utility.yul\":16438:16441   */\n      dup10\n        /* \"#utility.yul\":16434:16453   */\n      add\n        /* \"#utility.yul\":16428:16454   */\n      mload\n        /* \"#utility.yul\":16486:16534   */\n      tag_329\n        /* \"#utility.yul\":16528:16532   */\n      0x1f\n        /* \"#utility.yul\":16520:16526   */\n      dup10\n        /* \"#utility.yul\":16516:16533   */\n      and\n        /* \"#utility.yul\":16505:16514   */\n      dup3\n        /* \"#utility.yul\":16486:16534   */\n      tag_150\n      jump\t// in\n    tag_329:\n        /* \"#utility.yul\":16478:16484   */\n      dup4\n        /* \"#utility.yul\":16471:16535   */\n      sstore\n        /* \"#utility.yul\":16393:16549   */\n      pop\n        /* \"#utility.yul\":16370:16549   */\n    tag_328:\n        /* \"#utility.yul\":16595:16596   */\n      0x01\n        /* \"#utility.yul\":16591:16592   */\n      0x02\n        /* \"#utility.yul\":16583:16589   */\n      dup9\n        /* \"#utility.yul\":16579:16593   */\n      mul\n        /* \"#utility.yul\":16575:16597   */\n      add\n        /* \"#utility.yul\":16569:16573   */\n      dup9\n        /* \"#utility.yul\":16562:16598   */\n      sstore\n        /* \"#utility.yul\":15997:16608   */\n      pop\n      pop\n      pop\n        /* \"#utility.yul\":15960:16847   */\n    tag_320:\n      pop\n        /* \"#utility.yul\":15550:16853   */\n      pop\n      pop\n      pop\n        /* \"#utility.yul\":15458:16853   */\n      pop\n      pop\n      jump\t// out\n        /* \"#utility.yul\":16859:17035   */\n    tag_152:\n        /* \"#utility.yul\":16999:17027   */\n      0x6f776e65722063616e206f6e6c79206d616b652057696e6e6572000000000000\n        /* \"#utility.yul\":16995:16996   */\n      0x00\n        /* \"#utility.yul\":16987:16993   */\n      dup3\n        /* \"#utility.yul\":16983:16997   */\n      add\n        /* \"#utility.yul\":16976:17028   */\n      mstore\n        /* \"#utility.yul\":16859:17035   */\n      pop\n      jump\t// out\n        /* \"#utility.yul\":17041:17407   */\n    tag_153:\n        /* \"#utility.yul\":17183:17186   */\n      0x00\n        /* \"#utility.yul\":17204:17271   */\n      tag_332\n        /* \"#utility.yul\":17268:17270   */\n      0x1a\n        /* \"#utility.yul\":17263:17266   */\n      dup4\n        /* \"#utility.yul\":17204:17271   */\n      tag_115\n      jump\t// in\n    tag_332:\n        /* \"#utility.yul\":17197:17271   */\n      swap2\n      pop\n        /* \"#utility.yul\":17280:17373   */\n      tag_333\n        /* \"#utility.yul\":17369:17372   */\n      dup3\n        /* \"#utility.yul\":17280:17373   */\n      tag_152\n      jump\t// in\n    tag_333:\n        /* \"#utility.yul\":17398:17400   */\n      0x20\n        /* \"#utility.yul\":17393:17396   */\n      dup3\n        /* \"#utility.yul\":17389:17401   */\n      add\n        /* \"#utility.yul\":17382:17401   */\n      swap1\n      pop\n        /* \"#utility.yul\":17041:17407   */\n      swap2\n      swap1\n      pop\n      jump\t// out\n        /* \"#utility.yul\":17413:17832   */\n    tag_57:\n        /* \"#utility.yul\":17579:17583   */\n      0x00\n        /* \"#utility.yul\":17617:17619   */\n      0x20\n        /* \"#utility.yul\":17606:17615   */\n      dup3\n        /* \"#utility.yul\":17602:17620   */\n      add\n        /* \"#utility.yul\":17594:17620   */\n      swap1\n      pop\n        /* \"#utility.yul\":17666:17675   */\n      dup2\n        /* \"#utility.yul\":17660:17664   */\n      dup2\n        /* \"#utility.yul\":17656:17676   */\n      sub\n        /* \"#utility.yul\":17652:17653   */\n      0x00\n        /* \"#utility.yul\":17641:17650   */\n      dup4\n        /* \"#utility.yul\":17637:17654   */\n      add\n        /* \"#utility.yul\":17630:17677   */\n      mstore\n        /* \"#utility.yul\":17694:17825   */\n      tag_335\n        /* \"#utility.yul\":17820:17824   */\n      dup2\n        /* \"#utility.yul\":17694:17825   */\n      tag_153\n      jump\t// in\n    tag_335:\n        /* \"#utility.yul\":17686:17825   */\n      swap1\n      pop\n        /* \"#utility.yul\":17413:17832   */\n      swap2\n      swap1\n      pop\n      jump\t// out\n        /* \"#utility.yul\":17838:18015   */\n    tag_154:\n        /* \"#utility.yul\":17978:18007   */\n      0x7265717569726573206174206c65617374203320706c61796572730000000000\n        /* \"#utility.yul\":17974:17975   */\n      0x00\n        /* \"#utility.yul\":17966:17972   */\n      dup3\n        /* \"#utility.yul\":17962:17976   */\n      add\n        /* \"#utility.yul\":17955:18008   */\n      mstore\n        /* \"#utility.yul\":17838:18015   */\n      pop\n      jump\t// out\n        /* \"#utility.yul\":18021:18387   */\n    tag_155:\n        /* \"#utility.yul\":18163:18166   */\n      0x00\n        /* \"#utility.yul\":18184:18251   */\n      tag_338\n        /* \"#utility.yul\":18248:18250   */\n      0x1b\n        /* \"#utility.yul\":18243:18246   */\n      dup4\n        /* \"#utility.yul\":18184:18251   */\n      tag_115\n      jump\t// in\n    tag_338:\n        /* \"#utility.yul\":18177:18251   */\n      swap2\n      pop\n        /* \"#utility.yul\":18260:18353   */\n      tag_339\n        /* \"#utility.yul\":18349:18352   */\n      dup3\n        /* \"#utility.yul\":18260:18353   */\n      tag_154\n      jump\t// in\n    tag_339:\n        /* \"#utility.yul\":18378:18380   */\n      0x20\n        /* \"#utility.yul\":18373:18376   */\n      dup3\n        /* \"#utility.yul\":18369:18381   */\n      add\n        /* \"#utility.yul\":18362:18381   */\n      swap1\n      pop\n        /* \"#utility.yul\":18021:18387   */\n      swap2\n      swap1\n      pop\n      jump\t// out\n        /* \"#utility.yul\":18393:18812   */\n    tag_60:\n        /* \"#utility.yul\":18559:18563   */\n      0x00\n        /* \"#utility.yul\":18597:18599   */\n      0x20\n        /* \"#utility.yul\":18586:18595   */\n      dup3\n        /* \"#utility.yul\":18582:18600   */\n      add\n        /* \"#utility.yul\":18574:18600   */\n      swap1\n      pop\n        /* \"#utility.yul\":18646:18655   */\n      dup2\n        /* \"#utility.yul\":18640:18644   */\n      dup2\n        /* \"#utility.yul\":18636:18656   */\n      sub\n        /* \"#utility.yul\":18632:18633   */\n      0x00\n        /* \"#utility.yul\":18621:18630   */\n      dup4\n        /* \"#utility.yul\":18617:18634   */\n      add\n        /* \"#utility.yul\":18610:18657   */\n      mstore\n        /* \"#utility.yul\":18674:18805   */\n      tag_341\n        /* \"#utility.yul\":18800:18804   */\n      dup2\n        /* \"#utility.yul\":18674:18805   */\n      tag_155\n      jump\t// in\n    tag_341:\n        /* \"#utility.yul\":18666:18805   */\n      swap1\n      pop\n        /* \"#utility.yul\":18393:18812   */\n      swap2\n      swap1\n      pop\n      jump\t// out\n        /* \"#utility.yul\":18818:18897   */\n    tag_156:\n        /* \"#utility.yul\":18857:18864   */\n      0x00\n        /* \"#utility.yul\":18886:18891   */\n      dup2\n        /* \"#utility.yul\":18875:18891   */\n      swap1\n      pop\n        /* \"#utility.yul\":18818:18897   */\n      swap2\n      swap1\n      pop\n      jump\t// out\n        /* \"#utility.yul\":18903:19060   */\n    tag_157:\n        /* \"#utility.yul\":19008:19053   */\n      tag_344\n        /* \"#utility.yul\":19028:19052   */\n      tag_345\n        /* \"#utility.yul\":19046:19051   */\n      dup3\n        /* \"#utility.yul\":19028:19052   */\n      tag_96\n      jump\t// in\n    tag_345:\n        /* \"#utility.yul\":19008:19053   */\n      tag_156\n      jump\t// in\n    tag_344:\n        /* \"#utility.yul\":19003:19006   */\n      dup3\n        /* \"#utility.yul\":18996:19054   */\n      mstore\n        /* \"#utility.yul\":18903:19060   */\n      pop\n      pop\n      jump\t// out\n        /* \"#utility.yul\":19066:19322   */\n    tag_62:\n        /* \"#utility.yul\":19178:19181   */\n      0x00\n        /* \"#utility.yul\":19193:19268   */\n      tag_347\n        /* \"#utility.yul\":19264:19267   */\n      dup3\n        /* \"#utility.yul\":19255:19261   */\n      dup5\n        /* \"#utility.yul\":19193:19268   */\n      tag_157\n      jump\t// in\n    tag_347:\n        /* \"#utility.yul\":19293:19295   */\n      0x20\n        /* \"#utility.yul\":19288:19291   */\n      dup3\n        /* \"#utility.yul\":19284:19296   */\n      add\n        /* \"#utility.yul\":19277:19296   */\n      swap2\n      pop\n        /* \"#utility.yul\":19313:19316   */\n      dup2\n        /* \"#utility.yul\":19306:19316   */\n      swap1\n      pop\n        /* \"#utility.yul\":19066:19322   */\n      swap3\n      swap2\n      pop\n      pop\n      jump\t// out\n        /* \"#utility.yul\":19328:19508   */\n    tag_158:\n        /* \"#utility.yul\":19376:19453   */\n      0x4e487b7100000000000000000000000000000000000000000000000000000000\n        /* \"#utility.yul\":19373:19374   */\n      0x00\n        /* \"#utility.yul\":19366:19454   */\n      mstore\n        /* \"#utility.yul\":19473:19477   */\n      0x12\n        /* \"#utility.yul\":19470:19471   */\n      0x04\n        /* \"#utility.yul\":19463:19478   */\n      mstore\n        /* \"#utility.yul\":19497:19501   */\n      0x24\n        /* \"#utility.yul\":19494:19495   */\n      0x00\n        /* \"#utility.yul\":19487:19502   */\n      revert\n        /* \"#utility.yul\":19514:19690   */\n    tag_64:\n        /* \"#utility.yul\":19546:19547   */\n      0x00\n        /* \"#utility.yul\":19563:19583   */\n      tag_350\n        /* \"#utility.yul\":19581:19582   */\n      dup3\n        /* \"#utility.yul\":19563:19583   */\n      tag_96\n      jump\t// in\n    tag_350:\n        /* \"#utility.yul\":19558:19583   */\n      swap2\n      pop\n        /* \"#utility.yul\":19597:19617   */\n      tag_351\n        /* \"#utility.yul\":19615:19616   */\n      dup4\n        /* \"#utility.yul\":19597:19617   */\n      tag_96\n      jump\t// in\n    tag_351:\n        /* \"#utility.yul\":19592:19617   */\n      swap3\n      pop\n        /* \"#utility.yul\":19636:19637   */\n      dup3\n        /* \"#utility.yul\":19626:19661   */\n      tag_352\n      jumpi\n        /* \"#utility.yul\":19641:19659   */\n      tag_353\n      tag_158\n      jump\t// in\n    tag_353:\n        /* \"#utility.yul\":19626:19661   */\n    tag_352:\n        /* \"#utility.yul\":19682:19683   */\n      dup3\n        /* \"#utility.yul\":19679:19680   */\n      dup3\n        /* \"#utility.yul\":19675:19684   */\n      mod\n        /* \"#utility.yul\":19670:19684   */\n      swap1\n      pop\n        /* \"#utility.yul\":19514:19690   */\n      swap3\n      swap2\n      pop\n      pop\n      jump\t// out\n        /* \"#utility.yul\":19696:19876   */\n    tag_67:\n        /* \"#utility.yul\":19744:19821   */\n      0x4e487b7100000000000000000000000000000000000000000000000000000000\n        /* \"#utility.yul\":19741:19742   */\n      0x00\n        /* \"#utility.yul\":19734:19822   */\n      mstore\n        /* \"#utility.yul\":19841:19845   */\n      0x32\n        /* \"#utility.yul\":19838:19839   */\n      0x04\n        /* \"#utility.yul\":19831:19846   */\n      mstore\n        /* \"#utility.yul\":19865:19869   */\n      0x24\n        /* \"#utility.yul\":19862:19863   */\n      0x00\n        /* \"#utility.yul\":19855:19870   */\n      revert\n        /* \"#utility.yul\":19882:20031   */\n    tag_159:\n        /* \"#utility.yul\":19931:19937   */\n      0x00\n        /* \"#utility.yul\":19965:19970   */\n      dup2\n        /* \"#utility.yul\":19959:19971   */\n      sload\n        /* \"#utility.yul\":19949:19971   */\n      swap1\n      pop\n        /* \"#utility.yul\":19991:20024   */\n      tag_356\n        /* \"#utility.yul\":20017:20023   */\n      dup2\n        /* \"#utility.yul\":19991:20024   */\n      tag_75\n      jump\t// in\n    tag_356:\n        /* \"#utility.yul\":19981:20024   */\n      swap1\n      pop\n        /* \"#utility.yul\":19882:20031   */\n      swap2\n      swap1\n      pop\n      jump\t// out\n        /* \"#utility.yul\":20037:21488   */\n    tag_70:\n        /* \"#utility.yul\":20148:20151   */\n      dup2\n        /* \"#utility.yul\":20142:20146   */\n      dup2\n        /* \"#utility.yul\":20139:20152   */\n      sub\n        /* \"#utility.yul\":20136:20162   */\n      tag_358\n      jumpi\n        /* \"#utility.yul\":20155:20160   */\n      pop\n      pop\n      jump(tag_357)\n        /* \"#utility.yul\":20136:20162   */\n    tag_358:\n        /* \"#utility.yul\":20186:20220   */\n      tag_359\n        /* \"#utility.yul\":20216:20219   */\n      dup3\n        /* \"#utility.yul\":20186:20220   */\n      tag_159\n      jump\t// in\n    tag_359:\n        /* \"#utility.yul\":20285:20303   */\n      0xffffffffffffffff\n        /* \"#utility.yul\":20277:20283   */\n      dup2\n        /* \"#utility.yul\":20274:20304   */\n      gt\n        /* \"#utility.yul\":20271:20327   */\n      iszero\n      tag_360\n      jumpi\n        /* \"#utility.yul\":20307:20325   */\n      tag_361\n      tag_104\n      jump\t// in\n    tag_361:\n        /* \"#utility.yul\":20271:20327   */\n    tag_360:\n        /* \"#utility.yul\":20351:20389   */\n      tag_362\n        /* \"#utility.yul\":20383:20387   */\n      dup3\n        /* \"#utility.yul\":20377:20388   */\n      sload\n        /* \"#utility.yul\":20351:20389   */\n      tag_75\n      jump\t// in\n    tag_362:\n        /* \"#utility.yul\":20436:20503   */\n      tag_363\n        /* \"#utility.yul\":20496:20502   */\n      dup3\n        /* \"#utility.yul\":20488:20494   */\n      dup3\n        /* \"#utility.yul\":20482:20486   */\n      dup6\n        /* \"#utility.yul\":20436:20503   */\n      tag_148\n      jump\t// in\n    tag_363:\n        /* \"#utility.yul\":20530:20531   */\n      0x00\n        /* \"#utility.yul\":20559:20561   */\n      0x1f\n        /* \"#utility.yul\":20551:20557   */\n      dup4\n        /* \"#utility.yul\":20548:20562   */\n      gt\n        /* \"#utility.yul\":20576:20577   */\n      0x01\n        /* \"#utility.yul\":20571:21243   */\n      dup2\n      eq\n      tag_365\n      jumpi\n        /* \"#utility.yul\":21287:21288   */\n      0x00\n        /* \"#utility.yul\":21304:21310   */\n      dup5\n        /* \"#utility.yul\":21301:21378   */\n      iszero\n      tag_366\n      jumpi\n        /* \"#utility.yul\":21353:21362   */\n      dup3\n        /* \"#utility.yul\":21348:21351   */\n      dup8\n        /* \"#utility.yul\":21344:21363   */\n      add\n        /* \"#utility.yul\":21338:21364   */\n      sload\n        /* \"#utility.yul\":21329:21364   */\n      swap1\n      pop\n        /* \"#utility.yul\":21301:21378   */\n    tag_366:\n        /* \"#utility.yul\":21404:21471   */\n      tag_367\n        /* \"#utility.yul\":21464:21470   */\n      dup6\n        /* \"#utility.yul\":21457:21462   */\n      dup3\n        /* \"#utility.yul\":21404:21471   */\n      tag_151\n      jump\t// in\n    tag_367:\n        /* \"#utility.yul\":21398:21402   */\n      dup7\n        /* \"#utility.yul\":21391:21472   */\n      sstore\n        /* \"#utility.yul\":21260:21482   */\n      pop\n        /* \"#utility.yul\":20541:21482   */\n      jump(tag_364)\n        /* \"#utility.yul\":20571:21243   */\n    tag_365:\n        /* \"#utility.yul\":20623:20627   */\n      0x1f\n        /* \"#utility.yul\":20619:20628   */\n      not\n        /* \"#utility.yul\":20611:20617   */\n      dup5\n        /* \"#utility.yul\":20607:20629   */\n      and\n        /* \"#utility.yul\":20649:20685   */\n      tag_368\n        /* \"#utility.yul\":20681:20684   */\n      dup8\n        /* \"#utility.yul\":20649:20685   */\n      tag_137\n      jump\t// in\n    tag_368:\n        /* \"#utility.yul\":20642:20685   */\n      swap7\n      pop\n        /* \"#utility.yul\":20712:20749   */\n      tag_369\n        /* \"#utility.yul\":20744:20748   */\n      dup7\n        /* \"#utility.yul\":20712:20749   */\n      tag_137\n      jump\t// in\n    tag_369:\n        /* \"#utility.yul\":20771:20772   */\n      0x00\n        /* \"#utility.yul\":20785:20992   */\n    tag_370:\n        /* \"#utility.yul\":20799:20806   */\n      dup3\n        /* \"#utility.yul\":20796:20797   */\n      dup2\n        /* \"#utility.yul\":20793:20807   */\n      lt\n        /* \"#utility.yul\":20785:20992   */\n      iszero\n      tag_372\n      jumpi\n        /* \"#utility.yul\":20878:20887   */\n      dup5\n        /* \"#utility.yul\":20873:20876   */\n      dup10\n        /* \"#utility.yul\":20869:20888   */\n      add\n        /* \"#utility.yul\":20863:20889   */\n      sload\n        /* \"#utility.yul\":20855:20861   */\n      dup3\n        /* \"#utility.yul\":20848:20890   */\n      sstore\n        /* \"#utility.yul\":20929:20930   */\n      0x01\n        /* \"#utility.yul\":20921:20927   */\n      dup3\n        /* \"#utility.yul\":20917:20931   */\n      add\n        /* \"#utility.yul\":20907:20931   */\n      swap2\n      pop\n        /* \"#utility.yul\":20976:20977   */\n      0x01\n        /* \"#utility.yul\":20965:20974   */\n      dup6\n        /* \"#utility.yul\":20961:20978   */\n      add\n        /* \"#utility.yul\":20948:20978   */\n      swap5\n      pop\n        /* \"#utility.yul\":20822:20826   */\n      0x20\n        /* \"#utility.yul\":20819:20820   */\n      dup2\n        /* \"#utility.yul\":20815:20827   */\n      add\n        /* \"#utility.yul\":20810:20827   */\n      swap1\n      pop\n        /* \"#utility.yul\":20785:20992   */\n      jump(tag_370)\n    tag_372:\n        /* \"#utility.yul\":21020:21026   */\n      dup7\n        /* \"#utility.yul\":21011:21018   */\n      dup4\n        /* \"#utility.yul\":21008:21027   */\n      lt\n        /* \"#utility.yul\":21005:21184   */\n      iszero\n      tag_373\n      jumpi\n        /* \"#utility.yul\":21078:21087   */\n      dup5\n        /* \"#utility.yul\":21073:21076   */\n      dup10\n        /* \"#utility.yul\":21069:21088   */\n      add\n        /* \"#utility.yul\":21063:21089   */\n      sload\n        /* \"#utility.yul\":21121:21169   */\n      tag_374\n        /* \"#utility.yul\":21163:21167   */\n      0x1f\n        /* \"#utility.yul\":21155:21161   */\n      dup10\n        /* \"#utility.yul\":21151:21168   */\n      and\n        /* \"#utility.yul\":21140:21149   */\n      dup3\n        /* \"#utility.yul\":21121:21169   */\n      tag_150\n      jump\t// in\n    tag_374:\n        /* \"#utility.yul\":21113:21119   */\n      dup4\n        /* \"#utility.yul\":21106:21170   */\n      sstore\n        /* \"#utility.yul\":21028:21184   */\n      pop\n        /* \"#utility.yul\":21005:21184   */\n    tag_373:\n        /* \"#utility.yul\":21230:21231   */\n      0x01\n        /* \"#utility.yul\":21226:21227   */\n      0x02\n        /* \"#utility.yul\":21218:21224   */\n      dup9\n        /* \"#utility.yul\":21214:21228   */\n      mul\n        /* \"#utility.yul\":21210:21232   */\n      add\n        /* \"#utility.yul\":21204:21208   */\n      dup9\n        /* \"#utility.yul\":21197:21233   */\n      sstore\n        /* \"#utility.yul\":20578:21243   */\n      pop\n      pop\n      pop\n        /* \"#utility.yul\":20541:21482   */\n    tag_364:\n      pop\n        /* \"#utility.yul\":20126:21488   */\n      pop\n      pop\n      pop\n        /* \"#utility.yul\":20037:21488   */\n      pop\n      pop\n    tag_357:\n      jump\t// out\n\n    auxdata: 0xa26469706673582212205e8863853b1b4760f0ad53abb4f21ba84bd5b82e5889ec7e00719269904ce72a64736f6c63430008190033\n}\n",
				"bytecode": {
					"linkReferences": {},
					"object": "6080604052348015600e575f80fd5b50335f806101000a81548173ffffffffffffffffffffffffffffffffffffffff021916908373ffffffffffffffffffffffffffffffffffffffff1602179055506113128061005b5f395ff3fe60806040526004361061006f575f3560e01c806395251ef31161004d57806395251ef3146100e3578063dfbf53ae146100f9578063f71d96cb14610124578063f8e743ef146101615761006f565b806312065fe0146100735780631d27769f1461009d5780638da5cb5b146100b9575b5f80fd5b34801561007e575f80fd5b5061008761018b565b6040516100949190610841565b60405180910390f35b6100b760048036038101906100b291906109a7565b610192565b005b3480156100c4575f80fd5b506100cd61031b565b6040516100da9190610a2d565b60405180910390f35b3480156100ee575f80fd5b506100f761033e565b005b348015610104575f80fd5b5061010d61055f565b60405161011b929190610ac6565b60405180910390f35b34801561012f575f80fd5b5061014a60048036038101906101459190610b1e565b610615565b604051610158929190610ac6565b60405180910390f35b34801561016c575f80fd5b506101756106e9565b6040516101829190610c95565b60405180910390f35b5f47905090565b5f8054906101000a900473ffffffffffffffffffffffffffffffffffffffff1673ffffffffffffffffffffffffffffffffffffffff163373ffffffffffffffffffffffffffffffffffffffff160361021f576040517f08c379a000000000000000000000000000000000000000000000000000000000815260040161021690610cff565b60405180910390fd5b670de0b6b3a76400003414610269576040517f08c379a000000000000000000000000000000000000000000000000000000000815260040161026090610d67565b60405180910390fd5b600160405180604001604052808381526020013373ffffffffffffffffffffffffffffffffffffffff16815250908060018154018082558091505060019003905f5260205f2090600202015f909190919091505f820151815f0190816102cf9190610f7f565b506020820151816001015f6101000a81548173ffffffffffffffffffffffffffffffffffffffff021916908373ffffffffffffffffffffffffffffffffffffffff160217905550505050565b5f8054906101000a900473ffffffffffffffffffffffffffffffffffffffff1681565b5f8054906101000a900473ffffffffffffffffffffffffffffffffffffffff1673ffffffffffffffffffffffffffffffffffffffff163373ffffffffffffffffffffffffffffffffffffffff16146103cb576040517f08c379a00000000000000000000000000000000000000000000000000000000081526004016103c290611098565b60405180910390fd5b60036001805490501015610414576040517f08c379a000000000000000000000000000000000000000000000000000000000815260040161040b90611100565b60405180910390fd5b5f6001805490504260405160200161042c919061113e565b604051602081830303815290604052805190602001205f1c61044e9190611185565b905060018181548110610464576104636111b5565b5b905f5260205f20906002020160025f8201815f01908161048491906111f7565b50600182015f9054906101000a900473ffffffffffffffffffffffffffffffffffffffff16816001015f6101000a81548173ffffffffffffffffffffffffffffffffffffffff021916908373ffffffffffffffffffffffffffffffffffffffff16021790555090505060026001015f9054906101000a900473ffffffffffffffffffffffffffffffffffffffff1673ffffffffffffffffffffffffffffffffffffffff166108fc61053361018b565b90811502906040515f60405180830381858888f1935050505015801561055b573d5f803e3d5ffd5b5050565b6002805f01805461056f90610db2565b80601f016020809104026020016040519081016040528092919081815260200182805461059b90610db2565b80156105e65780601f106105bd576101008083540402835291602001916105e6565b820191905f5260205f20905b8154815290600101906020018083116105c957829003601f168201915b505050505090806001015f9054906101000a900473ffffffffffffffffffffffffffffffffffffffff16905082565b60018181548110610624575f80fd5b905f5260205f2090600202015f91509050805f01805461064390610db2565b80601f016020809104026020016040519081016040528092919081815260200182805461066f90610db2565b80156106ba5780601f10610691576101008083540402835291602001916106ba565b820191905f5260205f20905b81548152906001019060200180831161069d57829003601f168201915b505050505090806001015f9054906101000a900473ffffffffffffffffffffffffffffffffffffffff16905082565b60606001805480602002602001604051908101604052809291908181526020015f905b82821015610820578382905f5260205f2090600202016040518060400160405290815f8201805461073c90610db2565b80601f016020809104026020016040519081016040528092919081815260200182805461076890610db2565b80156107b35780601f1061078a576101008083540402835291602001916107b3565b820191905f5260205f20905b81548152906001019060200180831161079657829003601f168201915b50505050508152602001600182015f9054906101000a900473ffffffffffffffffffffffffffffffffffffffff1673ffffffffffffffffffffffffffffffffffffffff1673ffffffffffffffffffffffffffffffffffffffff16815250508152602001906001019061070c565b50505050905090565b5f819050919050565b61083b81610829565b82525050565b5f6020820190506108545f830184610832565b92915050565b5f604051905090565b5f80fd5b5f80fd5b5f80fd5b5f80fd5b5f601f19601f8301169050919050565b7f4e487b71000000000000000000000000000000000000000000000000000000005f52604160045260245ffd5b6108b982610873565b810181811067ffffffffffffffff821117156108d8576108d7610883565b5b80604052505050565b5f6108ea61085a565b90506108f682826108b0565b919050565b5f67ffffffffffffffff82111561091557610914610883565b5b61091e82610873565b9050602081019050919050565b828183375f83830152505050565b5f61094b610946846108fb565b6108e1565b9050828152602081018484840111156109675761096661086f565b5b61097284828561092b565b509392505050565b5f82601f83011261098e5761098d61086b565b5b813561099e848260208601610939565b91505092915050565b5f602082840312156109bc576109bb610863565b5b5f82013567ffffffffffffffff8111156109d9576109d8610867565b5b6109e58482850161097a565b91505092915050565b5f73ffffffffffffffffffffffffffffffffffffffff82169050919050565b5f610a17826109ee565b9050919050565b610a2781610a0d565b82525050565b5f602082019050610a405f830184610a1e565b92915050565b5f81519050919050565b5f82825260208201905092915050565b8281835e5f83830152505050565b5f610a7882610a46565b610a828185610a50565b9350610a92818560208601610a60565b610a9b81610873565b840191505092915050565b5f610ab0826109ee565b9050919050565b610ac081610aa6565b82525050565b5f6040820190508181035f830152610ade8185610a6e565b9050610aed6020830184610ab7565b9392505050565b610afd81610829565b8114610b07575f80fd5b50565b5f81359050610b1881610af4565b92915050565b5f60208284031215610b3357610b32610863565b5b5f610b4084828501610b0a565b91505092915050565b5f81519050919050565b5f82825260208201905092915050565b5f819050602082019050919050565b5f82825260208201905092915050565b5f610b8c82610a46565b610b968185610b72565b9350610ba6818560208601610a60565b610baf81610873565b840191505092915050565b610bc381610aa6565b82525050565b5f604083015f8301518482035f860152610be38282610b82565b9150506020830151610bf86020860182610bba565b508091505092915050565b5f610c0e8383610bc9565b905092915050565b5f602082019050919050565b5f610c2c82610b49565b610c368185610b53565b935083602082028501610c4885610b63565b805f5b85811015610c835784840389528151610c648582610c03565b9450610c6f83610c16565b925060208a01995050600181019050610c4b565b50829750879550505050505092915050565b5f6020820190508181035f830152610cad8184610c22565b905092915050565b7f6f776e65722063616e27742070617274696369706174650000000000000000005f82015250565b5f610ce9601783610a50565b9150610cf482610cb5565b602082019050919050565b5f6020820190508181035f830152610d1681610cdd565b9050919050565b7f312065746820726571756972656420666f7220706172746963697061746500005f82015250565b5f610d51601e83610a50565b9150610d5c82610d1d565b602082019050919050565b5f6020820190508181035f830152610d7e81610d45565b9050919050565b7f4e487b71000000000000000000000000000000000000000000000000000000005f52602260045260245ffd5b5f6002820490506001821680610dc957607f821691505b602082108103610ddc57610ddb610d85565b5b50919050565b5f819050815f5260205f209050919050565b5f6020601f8301049050919050565b5f82821b905092915050565b5f60088302610e3e7fffffffffffffffffffffffffffffffffffffffffffffffffffffffffffffffff82610e03565b610e488683610e03565b95508019841693508086168417925050509392505050565b5f819050919050565b5f610e83610e7e610e7984610829565b610e60565b610829565b9050919050565b5f819050919050565b610e9c83610e69565b610eb0610ea882610e8a565b848454610e0f565b825550505050565b5f90565b610ec4610eb8565b610ecf818484610e93565b505050565b5b81811015610ef257610ee75f82610ebc565b600181019050610ed5565b5050565b601f821115610f3757610f0881610de2565b610f1184610df4565b81016020851015610f20578190505b610f34610f2c85610df4565b830182610ed4565b50505b505050565b5f82821c905092915050565b5f610f575f1984600802610f3c565b1980831691505092915050565b5f610f6f8383610f48565b9150826002028217905092915050565b610f8882610a46565b67ffffffffffffffff811115610fa157610fa0610883565b5b610fab8254610db2565b610fb6828285610ef6565b5f60209050601f831160018114610fe7575f8415610fd5578287015190505b610fdf8582610f64565b865550611046565b601f198416610ff586610de2565b5f5b8281101561101c57848901518255600182019150602085019450602081019050610ff7565b868310156110395784890151611035601f891682610f48565b8355505b6001600288020188555050505b505050505050565b7f6f776e65722063616e206f6e6c79206d616b652057696e6e65720000000000005f82015250565b5f611082601a83610a50565b915061108d8261104e565b602082019050919050565b5f6020820190508181035f8301526110af81611076565b9050919050565b7f7265717569726573206174206c65617374203320706c617965727300000000005f82015250565b5f6110ea601b83610a50565b91506110f5826110b6565b602082019050919050565b5f6020820190508181035f830152611117816110de565b9050919050565b5f819050919050565b61113861113382610829565b61111e565b82525050565b5f6111498284611127565b60208201915081905092915050565b7f4e487b71000000000000000000000000000000000000000000000000000000005f52601260045260245ffd5b5f61118f82610829565b915061119a83610829565b9250826111aa576111a9611158565b5b828206905092915050565b7f4e487b71000000000000000000000000000000000000000000000000000000005f52603260045260245ffd5b5f815490506111f081610db2565b9050919050565b8181036112055750506112da565b61120e826111e2565b67ffffffffffffffff81111561122757611226610883565b5b6112318254610db2565b61123c828285610ef6565b5f601f831160018114611269575f8415611257578287015490505b6112618582610f64565b8655506112d3565b601f19841661127787610de2565b965061128286610de2565b5f5b828110156112a957848901548255600182019150600185019450602081019050611284565b868310156112c657848901546112c2601f891682610f48565b8355505b6001600288020188555050505b5050505050505b56fea26469706673582212205e8863853b1b4760f0ad53abb4f21ba84bd5b82e5889ec7e00719269904ce72a64736f6c63430008190033",
					"opcodes": "PUSH1 0x80 PUSH1 0x40 MSTORE CALLVALUE DUP1 ISZERO PUSH1 0xE JUMPI PUSH0 DUP1 REVERT JUMPDEST POP CALLER PUSH0 DUP1 PUSH2 0x100 EXP DUP2 SLOAD DUP2 PUSH20 0xFFFFFFFFFFFFFFFFFFFFFFFFFFFFFFFFFFFFFFFF MUL NOT AND SWAP1 DUP4 PUSH20 0xFFFFFFFFFFFFFFFFFFFFFFFFFFFFFFFFFFFFFFFF AND MUL OR SWAP1 SSTORE POP PUSH2 0x1312 DUP1 PUSH2 0x5B PUSH0 CODECOPY PUSH0 RETURN INVALID PUSH1 0x80 PUSH1 0x40 MSTORE PUSH1 0x4 CALLDATASIZE LT PUSH2 0x6F JUMPI PUSH0 CALLDATALOAD PUSH1 0xE0 SHR DUP1 PUSH4 0x95251EF3 GT PUSH2 0x4D JUMPI DUP1 PUSH4 0x95251EF3 EQ PUSH2 0xE3 JUMPI DUP1 PUSH4 0xDFBF53AE EQ PUSH2 0xF9 JUMPI DUP1 PUSH4 0xF71D96CB EQ PUSH2 0x124 JUMPI DUP1 PUSH4 0xF8E743EF EQ PUSH2 0x161 JUMPI PUSH2 0x6F JUMP JUMPDEST DUP1 PUSH4 0x12065FE0 EQ PUSH2 0x73 JUMPI DUP1 PUSH4 0x1D27769F EQ PUSH2 0x9D JUMPI DUP1 PUSH4 0x8DA5CB5B EQ PUSH2 0xB9 JUMPI JUMPDEST PUSH0 DUP1 REVERT JUMPDEST CALLVALUE DUP1 ISZERO PUSH2 0x7E JUMPI PUSH0 DUP1 REVERT JUMPDEST POP PUSH2 0x87 PUSH2 0x18B JUMP JUMPDEST PUSH1 0x40 MLOAD PUSH2 0x94 SWAP2 SWAP1 PUSH2 0x841 JUMP JUMPDEST PUSH1 0x40 MLOAD DUP1 SWAP2 SUB SWAP1 RETURN JUMPDEST PUSH2 0xB7 PUSH1 0x4 DUP1 CALLDATASIZE SUB DUP2 ADD SWAP1 PUSH2 0xB2 SWAP2 SWAP1 PUSH2 0x9A7 JUMP JUMPDEST PUSH2 0x192 JUMP JUMPDEST STOP JUMPDEST CALLVALUE DUP1 ISZERO PUSH2 0xC4 JUMPI PUSH0 DUP1 REVERT JUMPDEST POP PUSH2 0xCD PUSH2 0x31B JUMP JUMPDEST PUSH1 0x40 MLOAD PUSH2 0xDA SWAP2 SWAP1 PUSH2 0xA2D JUMP JUMPDEST PUSH1 0x40 MLOAD DUP1 SWAP2 SUB SWAP1 RETURN JUMPDEST CALLVALUE DUP1 ISZERO PUSH2 0xEE JUMPI PUSH0 DUP1 REVERT JUMPDEST POP PUSH2 0xF7 PUSH2 0x33E JUMP JUMPDEST STOP JUMPDEST CALLVALUE DUP1 ISZERO PUSH2 0x104 JUMPI PUSH0 DUP1 REVERT JUMPDEST POP PUSH2 0x10D PUSH2 0x55F JUMP JUMPDEST PUSH1 0x40 MLOAD PUSH2 0x11B SWAP3 SWAP2 SWAP1 PUSH2 0xAC6 JUMP JUMPDEST PUSH1 0x40 MLOAD DUP1 SWAP2 SUB SWAP1 RETURN JUMPDEST CALLVALUE DUP1 ISZERO PUSH2 0x12F JUMPI PUSH0 DUP1 REVERT JUMPDEST POP PUSH2 0x14A PUSH1 0x4 DUP1 CALLDATASIZE SUB DUP2 ADD SWAP1 PUSH2 0x145 SWAP2 SWAP1 PUSH2 0xB1E JUMP JUMPDEST PUSH2 0x615 JUMP JUMPDEST PUSH1 0x40 MLOAD PUSH2 0x158 SWAP3 SWAP2 SWAP1 PUSH2 0xAC6 JUMP JUMPDEST PUSH1 0x40 MLOAD DUP1 SWAP2 SUB SWAP1 RETURN JUMPDEST CALLVALUE DUP1 ISZERO PUSH2 0x16C JUMPI PUSH0 DUP1 REVERT JUMPDEST POP PUSH2 0x175 PUSH2 0x6E9 JUMP JUMPDEST PUSH1 0x40 MLOAD PUSH2 0x182 SWAP2 SWAP1 PUSH2 0xC95 JUMP JUMPDEST PUSH1 0x40 MLOAD DUP1 SWAP2 SUB SWAP1 RETURN JUMPDEST PUSH0 SELFBALANCE SWAP1 POP SWAP1 JUMP JUMPDEST PUSH0 DUP1 SLOAD SWAP1 PUSH2 0x100 EXP SWAP1 DIV PUSH20 0xFFFFFFFFFFFFFFFFFFFFFFFFFFFFFFFFFFFFFFFF AND PUSH20 0xFFFFFFFFFFFFFFFFFFFFFFFFFFFFFFFFFFFFFFFF AND CALLER PUSH20 0xFFFFFFFFFFFFFFFFFFFFFFFFFFFFFFFFFFFFFFFF AND SUB PUSH2 0x21F JUMPI PUSH1 0x40 MLOAD PUSH32 0x8C379A000000000000000000000000000000000000000000000000000000000 DUP2 MSTORE PUSH1 0x4 ADD PUSH2 0x216 SWAP1 PUSH2 0xCFF JUMP JUMPDEST PUSH1 0x40 MLOAD DUP1 SWAP2 SUB SWAP1 REVERT JUMPDEST PUSH8 0xDE0B6B3A7640000 CALLVALUE EQ PUSH2 0x269 JUMPI PUSH1 0x40 MLOAD PUSH32 0x8C379A000000000000000000000000000000000000000000000000000000000 DUP2 MSTORE PUSH1 0x4 ADD PUSH2 0x260 SWAP1 PUSH2 0xD67 JUMP JUMPDEST PUSH1 0x40 MLOAD DUP1 SWAP2 SUB SWAP1 REVERT JUMPDEST PUSH1 0x1 PUSH1 0x40 MLOAD DUP1 PUSH1 0x40 ADD PUSH1 0x40 MSTORE DUP1 DUP4 DUP2 MSTORE PUSH1 0x20 ADD CALLER PUSH20 0xFFFFFFFFFFFFFFFFFFFFFFFFFFFFFFFFFFFFFFFF AND DUP2 MSTORE POP SWAP1 DUP1 PUSH1 0x1 DUP2 SLOAD ADD DUP1 DUP3 SSTORE DUP1 SWAP2 POP POP PUSH1 0x1 SWAP1 SUB SWAP1 PUSH0 MSTORE PUSH1 0x20 PUSH0 KECCAK256 SWAP1 PUSH1 0x2 MUL ADD PUSH0 SWAP1 SWAP2 SWAP1 SWAP2 SWAP1 SWAP2 POP PUSH0 DUP3 ADD MLOAD DUP2 PUSH0 ADD SWAP1 DUP2 PUSH2 0x2CF SWAP2 SWAP1 PUSH2 0xF7F JUMP JUMPDEST POP PUSH1 0x20 DUP3 ADD MLOAD DUP2 PUSH1 0x1 ADD PUSH0 PUSH2 0x100 EXP DUP2 SLOAD DUP2 PUSH20 0xFFFFFFFFFFFFFFFFFFFFFFFFFFFFFFFFFFFFFFFF MUL NOT AND SWAP1 DUP4 PUSH20 0xFFFFFFFFFFFFFFFFFFFFFFFFFFFFFFFFFFFFFFFF AND MUL OR SWAP1 SSTORE POP POP POP POP JUMP JUMPDEST PUSH0 DUP1 SLOAD SWAP1 PUSH2 0x100 EXP SWAP1 DIV PUSH20 0xFFFFFFFFFFFFFFFFFFFFFFFFFFFFFFFFFFFFFFFF AND DUP2 JUMP JUMPDEST PUSH0 DUP1 SLOAD SWAP1 PUSH2 0x100 EXP SWAP1 DIV PUSH20 0xFFFFFFFFFFFFFFFFFFFFFFFFFFFFFFFFFFFFFFFF AND PUSH20 0xFFFFFFFFFFFFFFFFFFFFFFFFFFFFFFFFFFFFFFFF AND CALLER PUSH20 0xFFFFFFFFFFFFFFFFFFFFFFFFFFFFFFFFFFFFFFFF AND EQ PUSH2 0x3CB JUMPI PUSH1 0x40 MLOAD PUSH32 0x8C379A000000000000000000000000000000000000000000000000000000000 DUP2 MSTORE PUSH1 0x4 ADD PUSH2 0x3C2 SWAP1 PUSH2 0x1098 JUMP JUMPDEST PUSH1 0x40 MLOAD DUP1 SWAP2 SUB SWAP1 REVERT JUMPDEST PUSH1 0x3 PUSH1 0x1 DUP1 SLOAD SWAP1 POP LT ISZERO PUSH2 0x414 JUMPI PUSH1 0x40 MLOAD PUSH32 0x8C379A000000000000000000000000000000000000000000000000000000000 DUP2 MSTORE PUSH1 0x4 ADD PUSH2 0x40B SWAP1 PUSH2 0x1100 JUMP JUMPDEST PUSH1 0x40 MLOAD DUP1 SWAP2 SUB SWAP1 REVERT JUMPDEST PUSH0 PUSH1 0x1 DUP1 SLOAD SWAP1 POP TIMESTAMP PUSH1 0x40 MLOAD PUSH1 0x20 ADD PUSH2 0x42C SWAP2 SWAP1 PUSH2 0x113E JUMP JUMPDEST PUSH1 0x40 MLOAD PUSH1 0x20 DUP2 DUP4 SUB SUB DUP2 MSTORE SWAP1 PUSH1 0x40 MSTORE DUP1 MLOAD SWAP1 PUSH1 0x20 ADD KECCAK256 PUSH0 SHR PUSH2 0x44E SWAP2 SWAP1 PUSH2 0x1185 JUMP JUMPDEST SWAP1 POP PUSH1 0x1 DUP2 DUP2 SLOAD DUP2 LT PUSH2 0x464 JUMPI PUSH2 0x463 PUSH2 0x11B5 JUMP JUMPDEST JUMPDEST SWAP1 PUSH0 MSTORE PUSH1 0x20 PUSH0 KECCAK256 SWAP1 PUSH1 0x2 MUL ADD PUSH1 0x2 PUSH0 DUP3 ADD DUP2 PUSH0 ADD SWAP1 DUP2 PUSH2 0x484 SWAP2 SWAP1 PUSH2 0x11F7 JUMP JUMPDEST POP PUSH1 0x1 DUP3 ADD PUSH0 SWAP1 SLOAD SWAP1 PUSH2 0x100 EXP SWAP1 DIV PUSH20 0xFFFFFFFFFFFFFFFFFFFFFFFFFFFFFFFFFFFFFFFF AND DUP2 PUSH1 0x1 ADD PUSH0 PUSH2 0x100 EXP DUP2 SLOAD DUP2 PUSH20 0xFFFFFFFFFFFFFFFFFFFFFFFFFFFFFFFFFFFFFFFF MUL NOT AND SWAP1 DUP4 PUSH20 0xFFFFFFFFFFFFFFFFFFFFFFFFFFFFFFFFFFFFFFFF AND MUL OR SWAP1 SSTORE POP SWAP1 POP POP PUSH1 0x2 PUSH1 0x1 ADD PUSH0 SWAP1 SLOAD SWAP1 PUSH2 0x100 EXP SWAP1 DIV PUSH20 0xFFFFFFFFFFFFFFFFFFFFFFFFFFFFFFFFFFFFFFFF AND PUSH20 0xFFFFFFFFFFFFFFFFFFFFFFFFFFFFFFFFFFFFFFFF AND PUSH2 0x8FC PUSH2 0x533 PUSH2 0x18B JUMP JUMPDEST SWAP1 DUP2 ISZERO MUL SWAP1 PUSH1 0x40 MLOAD PUSH0 PUSH1 0x40 MLOAD DUP1 DUP4 SUB DUP2 DUP6 DUP9 DUP9 CALL SWAP4 POP POP POP POP ISZERO DUP1 ISZERO PUSH2 0x55B JUMPI RETURNDATASIZE PUSH0 DUP1 RETURNDATACOPY RETURNDATASIZE PUSH0 REVERT JUMPDEST POP POP JUMP JUMPDEST PUSH1 0x2 DUP1 PUSH0 ADD DUP1 SLOAD PUSH2 0x56F SWAP1 PUSH2 0xDB2 JUMP JUMPDEST DUP1 PUSH1 0x1F ADD PUSH1 0x20 DUP1 SWAP2 DIV MUL PUSH1 0x20 ADD PUSH1 0x40 MLOAD SWAP1 DUP2 ADD PUSH1 0x40 MSTORE DUP1 SWAP3 SWAP2 SWAP1 DUP2 DUP2 MSTORE PUSH1 0x20 ADD DUP3 DUP1 SLOAD PUSH2 0x59B SWAP1 PUSH2 0xDB2 JUMP JUMPDEST DUP1 ISZERO PUSH2 0x5E6 JUMPI DUP1 PUSH1 0x1F LT PUSH2 0x5BD JUMPI PUSH2 0x100 DUP1 DUP4 SLOAD DIV MUL DUP4 MSTORE SWAP2 PUSH1 0x20 ADD SWAP2 PUSH2 0x5E6 JUMP JUMPDEST DUP3 ADD SWAP2 SWAP1 PUSH0 MSTORE PUSH1 0x20 PUSH0 KECCAK256 SWAP1 JUMPDEST DUP2 SLOAD DUP2 MSTORE SWAP1 PUSH1 0x1 ADD SWAP1 PUSH1 0x20 ADD DUP1 DUP4 GT PUSH2 0x5C9 JUMPI DUP3 SWAP1 SUB PUSH1 0x1F AND DUP3 ADD SWAP2 JUMPDEST POP POP POP POP POP SWAP1 DUP1 PUSH1 0x1 ADD PUSH0 SWAP1 SLOAD SWAP1 PUSH2 0x100 EXP SWAP1 DIV PUSH20 0xFFFFFFFFFFFFFFFFFFFFFFFFFFFFFFFFFFFFFFFF AND SWAP1 POP DUP3 JUMP JUMPDEST PUSH1 0x1 DUP2 DUP2 SLOAD DUP2 LT PUSH2 0x624 JUMPI PUSH0 DUP1 REVERT JUMPDEST SWAP1 PUSH0 MSTORE PUSH1 0x20 PUSH0 KECCAK256 SWAP1 PUSH1 0x2 MUL ADD PUSH0 SWAP2 POP SWAP1 POP DUP1 PUSH0 ADD DUP1 SLOAD PUSH2 0x643 SWAP1 PUSH2 0xDB2 JUMP JUMPDEST DUP1 PUSH1 0x1F ADD PUSH1 0x20 DUP1 SWAP2 DIV MUL PUSH1 0x20 ADD PUSH1 0x40 MLOAD SWAP1 DUP2 ADD PUSH1 0x40 MSTORE DUP1 SWAP3 SWAP2 SWAP1 DUP2 DUP2 MSTORE PUSH1 0x20 ADD DUP3 DUP1 SLOAD PUSH2 0x66F SWAP1 PUSH2 0xDB2 JUMP JUMPDEST DUP1 ISZERO PUSH2 0x6BA JUMPI DUP1 PUSH1 0x1F LT PUSH2 0x691 JUMPI PUSH2 0x100 DUP1 DUP4 SLOAD DIV MUL DUP4 MSTORE SWAP2 PUSH1 0x20 ADD SWAP2 PUSH2 0x6BA JUMP JUMPDEST DUP3 ADD SWAP2 SWAP1 PUSH0 MSTORE PUSH1 0x20 PUSH0 KECCAK256 SWAP1 JUMPDEST DUP2 SLOAD DUP2 MSTORE SWAP1 PUSH1 0x1 ADD SWAP1 PUSH1 0x20 ADD DUP1 DUP4 GT PUSH2 0x69D JUMPI DUP3 SWAP1 SUB PUSH1 0x1F AND DUP3 ADD SWAP2 JUMPDEST POP POP POP POP POP SWAP1 DUP1 PUSH1 0x1 ADD PUSH0 SWAP1 SLOAD SWAP1 PUSH2 0x100 EXP SWAP1 DIV PUSH20 0xFFFFFFFFFFFFFFFFFFFFFFFFFFFFFFFFFFFFFFFF AND SWAP1 POP DUP3 JUMP JUMPDEST PUSH1 0x60 PUSH1 0x1 DUP1 SLOAD DUP1 PUSH1 0x20 MUL PUSH1 0x20 ADD PUSH1 0x40 MLOAD SWAP1 DUP2 ADD PUSH1 0x40 MSTORE DUP1 SWAP3 SWAP2 SWAP1 DUP2 DUP2 MSTORE PUSH1 0x20 ADD PUSH0 SWAP1 JUMPDEST DUP3 DUP3 LT ISZERO PUSH2 0x820 JUMPI DUP4 DUP3 SWAP1 PUSH0 MSTORE PUSH1 0x20 PUSH0 KECCAK256 SWAP1 PUSH1 0x2 MUL ADD PUSH1 0x40 MLOAD DUP1 PUSH1 0x40 ADD PUSH1 0x40 MSTORE SWAP1 DUP2 PUSH0 DUP3 ADD DUP1 SLOAD PUSH2 0x73C SWAP1 PUSH2 0xDB2 JUMP JUMPDEST DUP1 PUSH1 0x1F ADD PUSH1 0x20 DUP1 SWAP2 DIV MUL PUSH1 0x20 ADD PUSH1 0x40 MLOAD SWAP1 DUP2 ADD PUSH1 0x40 MSTORE DUP1 SWAP3 SWAP2 SWAP1 DUP2 DUP2 MSTORE PUSH1 0x20 ADD DUP3 DUP1 SLOAD PUSH2 0x768 SWAP1 PUSH2 0xDB2 JUMP JUMPDEST DUP1 ISZERO PUSH2 0x7B3 JUMPI DUP1 PUSH1 0x1F LT PUSH2 0x78A JUMPI PUSH2 0x100 DUP1 DUP4 SLOAD DIV MUL DUP4 MSTORE SWAP2 PUSH1 0x20 ADD SWAP2 PUSH2 0x7B3 JUMP JUMPDEST DUP3 ADD SWAP2 SWAP1 PUSH0 MSTORE PUSH1 0x20 PUSH0 KECCAK256 SWAP1 JUMPDEST DUP2 SLOAD DUP2 MSTORE SWAP1 PUSH1 0x1 ADD SWAP1 PUSH1 0x20 ADD DUP1 DUP4 GT PUSH2 0x796 JUMPI DUP3 SWAP1 SUB PUSH1 0x1F AND DUP3 ADD SWAP2 JUMPDEST POP POP POP POP POP DUP2 MSTORE PUSH1 0x20 ADD PUSH1 0x1 DUP3 ADD PUSH0 SWAP1 SLOAD SWAP1 PUSH2 0x100 EXP SWAP1 DIV PUSH20 0xFFFFFFFFFFFFFFFFFFFFFFFFFFFFFFFFFFFFFFFF AND PUSH20 0xFFFFFFFFFFFFFFFFFFFFFFFFFFFFFFFFFFFFFFFF AND PUSH20 0xFFFFFFFFFFFFFFFFFFFFFFFFFFFFFFFFFFFFFFFF AND DUP2 MSTORE POP POP DUP2 MSTORE PUSH1 0x20 ADD SWAP1 PUSH1 0x1 ADD SWAP1 PUSH2 0x70C JUMP JUMPDEST POP POP POP POP SWAP1 POP SWAP1 JUMP JUMPDEST PUSH0 DUP2 SWAP1 POP SWAP2 SWAP1 POP JUMP JUMPDEST PUSH2 0x83B DUP2 PUSH2 0x829 JUMP JUMPDEST DUP3 MSTORE POP POP JUMP JUMPDEST PUSH0 PUSH1 0x20 DUP3 ADD SWAP1 POP PUSH2 0x854 PUSH0 DUP4 ADD DUP5 PUSH2 0x832 JUMP JUMPDEST SWAP3 SWAP2 POP POP JUMP JUMPDEST PUSH0 PUSH1 0x40 MLOAD SWAP1 POP SWAP1 JUMP JUMPDEST PUSH0 DUP1 REVERT JUMPDEST PUSH0 DUP1 REVERT JUMPDEST PUSH0 DUP1 REVERT JUMPDEST PUSH0 DUP1 REVERT JUMPDEST PUSH0 PUSH1 0x1F NOT PUSH1 0x1F DUP4 ADD AND SWAP1 POP SWAP2 SWAP1 POP JUMP JUMPDEST PUSH32 0x4E487B7100000000000000000000000000000000000000000000000000000000 PUSH0 MSTORE PUSH1 0x41 PUSH1 0x4 MSTORE PUSH1 0x24 PUSH0 REVERT JUMPDEST PUSH2 0x8B9 DUP3 PUSH2 0x873 JUMP JUMPDEST DUP2 ADD DUP2 DUP2 LT PUSH8 0xFFFFFFFFFFFFFFFF DUP3 GT OR ISZERO PUSH2 0x8D8 JUMPI PUSH2 0x8D7 PUSH2 0x883 JUMP JUMPDEST JUMPDEST DUP1 PUSH1 0x40 MSTORE POP POP POP JUMP JUMPDEST PUSH0 PUSH2 0x8EA PUSH2 0x85A JUMP JUMPDEST SWAP1 POP PUSH2 0x8F6 DUP3 DUP3 PUSH2 0x8B0 JUMP JUMPDEST SWAP2 SWAP1 POP JUMP JUMPDEST PUSH0 PUSH8 0xFFFFFFFFFFFFFFFF DUP3 GT ISZERO PUSH2 0x915 JUMPI PUSH2 0x914 PUSH2 0x883 JUMP JUMPDEST JUMPDEST PUSH2 0x91E DUP3 PUSH2 0x873 JUMP JUMPDEST SWAP1 POP PUSH1 0x20 DUP2 ADD SWAP1 POP SWAP2 SWAP1 POP JUMP JUMPDEST DUP3 DUP2 DUP4 CALLDATACOPY PUSH0 DUP4 DUP4 ADD MSTORE POP POP POP JUMP JUMPDEST PUSH0 PUSH2 0x94B PUSH2 0x946 DUP5 PUSH2 0x8FB JUMP JUMPDEST PUSH2 0x8E1 JUMP JUMPDEST SWAP1 POP DUP3 DUP2 MSTORE PUSH1 0x20 DUP2 ADD DUP5 DUP5 DUP5 ADD GT ISZERO PUSH2 0x967 JUMPI PUSH2 0x966 PUSH2 0x86F JUMP JUMPDEST JUMPDEST PUSH2 0x972 DUP5 DUP3 DUP6 PUSH2 0x92B JUMP JUMPDEST POP SWAP4 SWAP3 POP POP POP JUMP JUMPDEST PUSH0 DUP3 PUSH1 0x1F DUP4 ADD SLT PUSH2 0x98E JUMPI PUSH2 0x98D PUSH2 0x86B JUMP JUMPDEST JUMPDEST DUP2 CALLDATALOAD PUSH2 0x99E DUP5 DUP3 PUSH1 0x20 DUP7 ADD PUSH2 0x939 JUMP JUMPDEST SWAP2 POP POP SWAP3 SWAP2 POP POP JUMP JUMPDEST PUSH0 PUSH1 0x20 DUP3 DUP5 SUB SLT ISZERO PUSH2 0x9BC JUMPI PUSH2 0x9BB PUSH2 0x863 JUMP JUMPDEST JUMPDEST PUSH0 DUP3 ADD CALLDATALOAD PUSH8 0xFFFFFFFFFFFFFFFF DUP2 GT ISZERO PUSH2 0x9D9 JUMPI PUSH2 0x9D8 PUSH2 0x867 JUMP JUMPDEST JUMPDEST PUSH2 0x9E5 DUP5 DUP3 DUP6 ADD PUSH2 0x97A JUMP JUMPDEST SWAP2 POP POP SWAP3 SWAP2 POP POP JUMP JUMPDEST PUSH0 PUSH20 0xFFFFFFFFFFFFFFFFFFFFFFFFFFFFFFFFFFFFFFFF DUP3 AND SWAP1 POP SWAP2 SWAP1 POP JUMP JUMPDEST PUSH0 PUSH2 0xA17 DUP3 PUSH2 0x9EE JUMP JUMPDEST SWAP1 POP SWAP2 SWAP1 POP JUMP JUMPDEST PUSH2 0xA27 DUP2 PUSH2 0xA0D JUMP JUMPDEST DUP3 MSTORE POP POP JUMP JUMPDEST PUSH0 PUSH1 0x20 DUP3 ADD SWAP1 POP PUSH2 0xA40 PUSH0 DUP4 ADD DUP5 PUSH2 0xA1E JUMP JUMPDEST SWAP3 SWAP2 POP POP JUMP JUMPDEST PUSH0 DUP2 MLOAD SWAP1 POP SWAP2 SWAP1 POP JUMP JUMPDEST PUSH0 DUP3 DUP3 MSTORE PUSH1 0x20 DUP3 ADD SWAP1 POP SWAP3 SWAP2 POP POP JUMP JUMPDEST DUP3 DUP2 DUP4 MCOPY PUSH0 DUP4 DUP4 ADD MSTORE POP POP POP JUMP JUMPDEST PUSH0 PUSH2 0xA78 DUP3 PUSH2 0xA46 JUMP JUMPDEST PUSH2 0xA82 DUP2 DUP6 PUSH2 0xA50 JUMP JUMPDEST SWAP4 POP PUSH2 0xA92 DUP2 DUP6 PUSH1 0x20 DUP7 ADD PUSH2 0xA60 JUMP JUMPDEST PUSH2 0xA9B DUP2 PUSH2 0x873 JUMP JUMPDEST DUP5 ADD SWAP2 POP POP SWAP3 SWAP2 POP POP JUMP JUMPDEST PUSH0 PUSH2 0xAB0 DUP3 PUSH2 0x9EE JUMP JUMPDEST SWAP1 POP SWAP2 SWAP1 POP JUMP JUMPDEST PUSH2 0xAC0 DUP2 PUSH2 0xAA6 JUMP JUMPDEST DUP3 MSTORE POP POP JUMP JUMPDEST PUSH0 PUSH1 0x40 DUP3 ADD SWAP1 POP DUP2 DUP2 SUB PUSH0 DUP4 ADD MSTORE PUSH2 0xADE DUP2 DUP6 PUSH2 0xA6E JUMP JUMPDEST SWAP1 POP PUSH2 0xAED PUSH1 0x20 DUP4 ADD DUP5 PUSH2 0xAB7 JUMP JUMPDEST SWAP4 SWAP3 POP POP POP JUMP JUMPDEST PUSH2 0xAFD DUP2 PUSH2 0x829 JUMP JUMPDEST DUP2 EQ PUSH2 0xB07 JUMPI PUSH0 DUP1 REVERT JUMPDEST POP JUMP JUMPDEST PUSH0 DUP2 CALLDATALOAD SWAP1 POP PUSH2 0xB18 DUP2 PUSH2 0xAF4 JUMP JUMPDEST SWAP3 SWAP2 POP POP JUMP JUMPDEST PUSH0 PUSH1 0x20 DUP3 DUP5 SUB SLT ISZERO PUSH2 0xB33 JUMPI PUSH2 0xB32 PUSH2 0x863 JUMP JUMPDEST JUMPDEST PUSH0 PUSH2 0xB40 DUP5 DUP3 DUP6 ADD PUSH2 0xB0A JUMP JUMPDEST SWAP2 POP POP SWAP3 SWAP2 POP POP JUMP JUMPDEST PUSH0 DUP2 MLOAD SWAP1 POP SWAP2 SWAP1 POP JUMP JUMPDEST PUSH0 DUP3 DUP3 MSTORE PUSH1 0x20 DUP3 ADD SWAP1 POP SWAP3 SWAP2 POP POP JUMP JUMPDEST PUSH0 DUP2 SWAP1 POP PUSH1 0x20 DUP3 ADD SWAP1 POP SWAP2 SWAP1 POP JUMP JUMPDEST PUSH0 DUP3 DUP3 MSTORE PUSH1 0x20 DUP3 ADD SWAP1 POP SWAP3 SWAP2 POP POP JUMP JUMPDEST PUSH0 PUSH2 0xB8C DUP3 PUSH2 0xA46 JUMP JUMPDEST PUSH2 0xB96 DUP2 DUP6 PUSH2 0xB72 JUMP JUMPDEST SWAP4 POP PUSH2 0xBA6 DUP2 DUP6 PUSH1 0x20 DUP7 ADD PUSH2 0xA60 JUMP JUMPDEST PUSH2 0xBAF DUP2 PUSH2 0x873 JUMP JUMPDEST DUP5 ADD SWAP2 POP POP SWAP3 SWAP2 POP POP JUMP JUMPDEST PUSH2 0xBC3 DUP2 PUSH2 0xAA6 JUMP JUMPDEST DUP3 MSTORE POP POP JUMP JUMPDEST PUSH0 PUSH1 0x40 DUP4 ADD PUSH0 DUP4 ADD MLOAD DUP5 DUP3 SUB PUSH0 DUP7 ADD MSTORE PUSH2 0xBE3 DUP3 DUP3 PUSH2 0xB82 JUMP JUMPDEST SWAP2 POP POP PUSH1 0x20 DUP4 ADD MLOAD PUSH2 0xBF8 PUSH1 0x20 DUP7 ADD DUP3 PUSH2 0xBBA JUMP JUMPDEST POP DUP1 SWAP2 POP POP SWAP3 SWAP2 POP POP JUMP JUMPDEST PUSH0 PUSH2 0xC0E DUP4 DUP4 PUSH2 0xBC9 JUMP JUMPDEST SWAP1 POP SWAP3 SWAP2 POP POP JUMP JUMPDEST PUSH0 PUSH1 0x20 DUP3 ADD SWAP1 POP SWAP2 SWAP1 POP JUMP JUMPDEST PUSH0 PUSH2 0xC2C DUP3 PUSH2 0xB49 JUMP JUMPDEST PUSH2 0xC36 DUP2 DUP6 PUSH2 0xB53 JUMP JUMPDEST SWAP4 POP DUP4 PUSH1 0x20 DUP3 MUL DUP6 ADD PUSH2 0xC48 DUP6 PUSH2 0xB63 JUMP JUMPDEST DUP1 PUSH0 JUMPDEST DUP6 DUP2 LT ISZERO PUSH2 0xC83 JUMPI DUP5 DUP5 SUB DUP10 MSTORE DUP2 MLOAD PUSH2 0xC64 DUP6 DUP3 PUSH2 0xC03 JUMP JUMPDEST SWAP5 POP PUSH2 0xC6F DUP4 PUSH2 0xC16 JUMP JUMPDEST SWAP3 POP PUSH1 0x20 DUP11 ADD SWAP10 POP POP PUSH1 0x1 DUP2 ADD SWAP1 POP PUSH2 0xC4B JUMP JUMPDEST POP DUP3 SWAP8 POP DUP8 SWAP6 POP POP POP POP POP POP SWAP3 SWAP2 POP POP JUMP JUMPDEST PUSH0 PUSH1 0x20 DUP3 ADD SWAP1 POP DUP2 DUP2 SUB PUSH0 DUP4 ADD MSTORE PUSH2 0xCAD DUP2 DUP5 PUSH2 0xC22 JUMP JUMPDEST SWAP1 POP SWAP3 SWAP2 POP POP JUMP JUMPDEST PUSH32 0x6F776E65722063616E2774207061727469636970617465000000000000000000 PUSH0 DUP3 ADD MSTORE POP JUMP JUMPDEST PUSH0 PUSH2 0xCE9 PUSH1 0x17 DUP4 PUSH2 0xA50 JUMP JUMPDEST SWAP2 POP PUSH2 0xCF4 DUP3 PUSH2 0xCB5 JUMP JUMPDEST PUSH1 0x20 DUP3 ADD SWAP1 POP SWAP2 SWAP1 POP JUMP JUMPDEST PUSH0 PUSH1 0x20 DUP3 ADD SWAP1 POP DUP2 DUP2 SUB PUSH0 DUP4 ADD MSTORE PUSH2 0xD16 DUP2 PUSH2 0xCDD JUMP JUMPDEST SWAP1 POP SWAP2 SWAP1 POP JUMP JUMPDEST PUSH32 0x312065746820726571756972656420666F722070617274696369706174650000 PUSH0 DUP3 ADD MSTORE POP JUMP JUMPDEST PUSH0 PUSH2 0xD51 PUSH1 0x1E DUP4 PUSH2 0xA50 JUMP JUMPDEST SWAP2 POP PUSH2 0xD5C DUP3 PUSH2 0xD1D JUMP JUMPDEST PUSH1 0x20 DUP3 ADD SWAP1 POP SWAP2 SWAP1 POP JUMP JUMPDEST PUSH0 PUSH1 0x20 DUP3 ADD SWAP1 POP DUP2 DUP2 SUB PUSH0 DUP4 ADD MSTORE PUSH2 0xD7E DUP2 PUSH2 0xD45 JUMP JUMPDEST SWAP1 POP SWAP2 SWAP1 POP JUMP JUMPDEST PUSH32 0x4E487B7100000000000000000000000000000000000000000000000000000000 PUSH0 MSTORE PUSH1 0x22 PUSH1 0x4 MSTORE PUSH1 0x24 PUSH0 REVERT JUMPDEST PUSH0 PUSH1 0x2 DUP3 DIV SWAP1 POP PUSH1 0x1 DUP3 AND DUP1 PUSH2 0xDC9 JUMPI PUSH1 0x7F DUP3 AND SWAP2 POP JUMPDEST PUSH1 0x20 DUP3 LT DUP2 SUB PUSH2 0xDDC JUMPI PUSH2 0xDDB PUSH2 0xD85 JUMP JUMPDEST JUMPDEST POP SWAP2 SWAP1 POP JUMP JUMPDEST PUSH0 DUP2 SWAP1 POP DUP2 PUSH0 MSTORE PUSH1 0x20 PUSH0 KECCAK256 SWAP1 POP SWAP2 SWAP1 POP JUMP JUMPDEST PUSH0 PUSH1 0x20 PUSH1 0x1F DUP4 ADD DIV SWAP1 POP SWAP2 SWAP1 POP JUMP JUMPDEST PUSH0 DUP3 DUP3 SHL SWAP1 POP SWAP3 SWAP2 POP POP JUMP JUMPDEST PUSH0 PUSH1 0x8 DUP4 MUL PUSH2 0xE3E PUSH32 0xFFFFFFFFFFFFFFFFFFFFFFFFFFFFFFFFFFFFFFFFFFFFFFFFFFFFFFFFFFFFFFFF DUP3 PUSH2 0xE03 JUMP JUMPDEST PUSH2 0xE48 DUP7 DUP4 PUSH2 0xE03 JUMP JUMPDEST SWAP6 POP DUP1 NOT DUP5 AND SWAP4 POP DUP1 DUP7 AND DUP5 OR SWAP3 POP POP POP SWAP4 SWAP3 POP POP POP JUMP JUMPDEST PUSH0 DUP2 SWAP1 POP SWAP2 SWAP1 POP JUMP JUMPDEST PUSH0 PUSH2 0xE83 PUSH2 0xE7E PUSH2 0xE79 DUP5 PUSH2 0x829 JUMP JUMPDEST PUSH2 0xE60 JUMP JUMPDEST PUSH2 0x829 JUMP JUMPDEST SWAP1 POP SWAP2 SWAP1 POP JUMP JUMPDEST PUSH0 DUP2 SWAP1 POP SWAP2 SWAP1 POP JUMP JUMPDEST PUSH2 0xE9C DUP4 PUSH2 0xE69 JUMP JUMPDEST PUSH2 0xEB0 PUSH2 0xEA8 DUP3 PUSH2 0xE8A JUMP JUMPDEST DUP5 DUP5 SLOAD PUSH2 0xE0F JUMP JUMPDEST DUP3 SSTORE POP POP POP POP JUMP JUMPDEST PUSH0 SWAP1 JUMP JUMPDEST PUSH2 0xEC4 PUSH2 0xEB8 JUMP JUMPDEST PUSH2 0xECF DUP2 DUP5 DUP5 PUSH2 0xE93 JUMP JUMPDEST POP POP POP JUMP JUMPDEST JUMPDEST DUP2 DUP2 LT ISZERO PUSH2 0xEF2 JUMPI PUSH2 0xEE7 PUSH0 DUP3 PUSH2 0xEBC JUMP JUMPDEST PUSH1 0x1 DUP2 ADD SWAP1 POP PUSH2 0xED5 JUMP JUMPDEST POP POP JUMP JUMPDEST PUSH1 0x1F DUP3 GT ISZERO PUSH2 0xF37 JUMPI PUSH2 0xF08 DUP2 PUSH2 0xDE2 JUMP JUMPDEST PUSH2 0xF11 DUP5 PUSH2 0xDF4 JUMP JUMPDEST DUP2 ADD PUSH1 0x20 DUP6 LT ISZERO PUSH2 0xF20 JUMPI DUP2 SWAP1 POP JUMPDEST PUSH2 0xF34 PUSH2 0xF2C DUP6 PUSH2 0xDF4 JUMP JUMPDEST DUP4 ADD DUP3 PUSH2 0xED4 JUMP JUMPDEST POP POP JUMPDEST POP POP POP JUMP JUMPDEST PUSH0 DUP3 DUP3 SHR SWAP1 POP SWAP3 SWAP2 POP POP JUMP JUMPDEST PUSH0 PUSH2 0xF57 PUSH0 NOT DUP5 PUSH1 0x8 MUL PUSH2 0xF3C JUMP JUMPDEST NOT DUP1 DUP4 AND SWAP2 POP POP SWAP3 SWAP2 POP POP JUMP JUMPDEST PUSH0 PUSH2 0xF6F DUP4 DUP4 PUSH2 0xF48 JUMP JUMPDEST SWAP2 POP DUP3 PUSH1 0x2 MUL DUP3 OR SWAP1 POP SWAP3 SWAP2 POP POP JUMP JUMPDEST PUSH2 0xF88 DUP3 PUSH2 0xA46 JUMP JUMPDEST PUSH8 0xFFFFFFFFFFFFFFFF DUP2 GT ISZERO PUSH2 0xFA1 JUMPI PUSH2 0xFA0 PUSH2 0x883 JUMP JUMPDEST JUMPDEST PUSH2 0xFAB DUP3 SLOAD PUSH2 0xDB2 JUMP JUMPDEST PUSH2 0xFB6 DUP3 DUP3 DUP6 PUSH2 0xEF6 JUMP JUMPDEST PUSH0 PUSH1 0x20 SWAP1 POP PUSH1 0x1F DUP4 GT PUSH1 0x1 DUP2 EQ PUSH2 0xFE7 JUMPI PUSH0 DUP5 ISZERO PUSH2 0xFD5 JUMPI DUP3 DUP8 ADD MLOAD SWAP1 POP JUMPDEST PUSH2 0xFDF DUP6 DUP3 PUSH2 0xF64 JUMP JUMPDEST DUP7 SSTORE POP PUSH2 0x1046 JUMP JUMPDEST PUSH1 0x1F NOT DUP5 AND PUSH2 0xFF5 DUP7 PUSH2 0xDE2 JUMP JUMPDEST PUSH0 JUMPDEST DUP3 DUP2 LT ISZERO PUSH2 0x101C JUMPI DUP5 DUP10 ADD MLOAD DUP3 SSTORE PUSH1 0x1 DUP3 ADD SWAP2 POP PUSH1 0x20 DUP6 ADD SWAP5 POP PUSH1 0x20 DUP2 ADD SWAP1 POP PUSH2 0xFF7 JUMP JUMPDEST DUP7 DUP4 LT ISZERO PUSH2 0x1039 JUMPI DUP5 DUP10 ADD MLOAD PUSH2 0x1035 PUSH1 0x1F DUP10 AND DUP3 PUSH2 0xF48 JUMP JUMPDEST DUP4 SSTORE POP JUMPDEST PUSH1 0x1 PUSH1 0x2 DUP9 MUL ADD DUP9 SSTORE POP POP POP JUMPDEST POP POP POP POP POP POP JUMP JUMPDEST PUSH32 0x6F776E65722063616E206F6E6C79206D616B652057696E6E6572000000000000 PUSH0 DUP3 ADD MSTORE POP JUMP JUMPDEST PUSH0 PUSH2 0x1082 PUSH1 0x1A DUP4 PUSH2 0xA50 JUMP JUMPDEST SWAP2 POP PUSH2 0x108D DUP3 PUSH2 0x104E JUMP JUMPDEST PUSH1 0x20 DUP3 ADD SWAP1 POP SWAP2 SWAP1 POP JUMP JUMPDEST PUSH0 PUSH1 0x20 DUP3 ADD SWAP1 POP DUP2 DUP2 SUB PUSH0 DUP4 ADD MSTORE PUSH2 0x10AF DUP2 PUSH2 0x1076 JUMP JUMPDEST SWAP1 POP SWAP2 SWAP1 POP JUMP JUMPDEST PUSH32 0x7265717569726573206174206C65617374203320706C61796572730000000000 PUSH0 DUP3 ADD MSTORE POP JUMP JUMPDEST PUSH0 PUSH2 0x10EA PUSH1 0x1B DUP4 PUSH2 0xA50 JUMP JUMPDEST SWAP2 POP PUSH2 0x10F5 DUP3 PUSH2 0x10B6 JUMP JUMPDEST PUSH1 0x20 DUP3 ADD SWAP1 POP SWAP2 SWAP1 POP JUMP JUMPDEST PUSH0 PUSH1 0x20 DUP3 ADD SWAP1 POP DUP2 DUP2 SUB PUSH0 DUP4 ADD MSTORE PUSH2 0x1117 DUP2 PUSH2 0x10DE JUMP JUMPDEST SWAP1 POP SWAP2 SWAP1 POP JUMP JUMPDEST PUSH0 DUP2 SWAP1 POP SWAP2 SWAP1 POP JUMP JUMPDEST PUSH2 0x1138 PUSH2 0x1133 DUP3 PUSH2 0x829 JUMP JUMPDEST PUSH2 0x111E JUMP JUMPDEST DUP3 MSTORE POP POP JUMP JUMPDEST PUSH0 PUSH2 0x1149 DUP3 DUP5 PUSH2 0x1127 JUMP JUMPDEST PUSH1 0x20 DUP3 ADD SWAP2 POP DUP2 SWAP1 POP SWAP3 SWAP2 POP POP JUMP JUMPDEST PUSH32 0x4E487B7100000000000000000000000000000000000000000000000000000000 PUSH0 MSTORE PUSH1 0x12 PUSH1 0x4 MSTORE PUSH1 0x24 PUSH0 REVERT JUMPDEST PUSH0 PUSH2 0x118F DUP3 PUSH2 0x829 JUMP JUMPDEST SWAP2 POP PUSH2 0x119A DUP4 PUSH2 0x829 JUMP JUMPDEST SWAP3 POP DUP3 PUSH2 0x11AA JUMPI PUSH2 0x11A9 PUSH2 0x1158 JUMP JUMPDEST JUMPDEST DUP3 DUP3 MOD SWAP1 POP SWAP3 SWAP2 POP POP JUMP JUMPDEST PUSH32 0x4E487B7100000000000000000000000000000000000000000000000000000000 PUSH0 MSTORE PUSH1 0x32 PUSH1 0x4 MSTORE PUSH1 0x24 PUSH0 REVERT JUMPDEST PUSH0 DUP2 SLOAD SWAP1 POP PUSH2 0x11F0 DUP2 PUSH2 0xDB2 JUMP JUMPDEST SWAP1 POP SWAP2 SWAP1 POP JUMP JUMPDEST DUP2 DUP2 SUB PUSH2 0x1205 JUMPI POP POP PUSH2 0x12DA JUMP JUMPDEST PUSH2 0x120E DUP3 PUSH2 0x11E2 JUMP JUMPDEST PUSH8 0xFFFFFFFFFFFFFFFF DUP2 GT ISZERO PUSH2 0x1227 JUMPI PUSH2 0x1226 PUSH2 0x883 JUMP JUMPDEST JUMPDEST PUSH2 0x1231 DUP3 SLOAD PUSH2 0xDB2 JUMP JUMPDEST PUSH2 0x123C DUP3 DUP3 DUP6 PUSH2 0xEF6 JUMP JUMPDEST PUSH0 PUSH1 0x1F DUP4 GT PUSH1 0x1 DUP2 EQ PUSH2 0x1269 JUMPI PUSH0 DUP5 ISZERO PUSH2 0x1257 JUMPI DUP3 DUP8 ADD SLOAD SWAP1 POP JUMPDEST PUSH2 0x1261 DUP6 DUP3 PUSH2 0xF64 JUMP JUMPDEST DUP7 SSTORE POP PUSH2 0x12D3 JUMP JUMPDEST PUSH1 0x1F NOT DUP5 AND PUSH2 0x1277 DUP8 PUSH2 0xDE2 JUMP JUMPDEST SWAP7 POP PUSH2 0x1282 DUP7 PUSH2 0xDE2 JUMP JUMPDEST PUSH0 JUMPDEST DUP3 DUP2 LT ISZERO PUSH2 0x12A9 JUMPI DUP5 DUP10 ADD SLOAD DUP3 SSTORE PUSH1 0x1 DUP3 ADD SWAP2 POP PUSH1 0x1 DUP6 ADD SWAP5 POP PUSH1 0x20 DUP2 ADD SWAP1 POP PUSH2 0x1284 JUMP JUMPDEST DUP7 DUP4 LT ISZERO PUSH2 0x12C6 JUMPI DUP5 DUP10 ADD SLOAD PUSH2 0x12C2 PUSH1 0x1F DUP10 AND DUP3 PUSH2 0xF48 JUMP JUMPDEST DUP4 SSTORE POP JUMPDEST PUSH1 0x1 PUSH1 0x2 DUP9 MUL ADD DUP9 SSTORE POP POP POP JUMPDEST POP POP POP POP POP POP JUMPDEST JUMP INVALID LOG2 PUSH5 0x6970667358 0x22 SLT KECCAK256 MCOPY DUP9 PUSH4 0x853B1B47 PUSH1 0xF0 0xAD MSTORE8 0xAB 0xB4 CALLCODE SHL 0xA8 0x4B 0xD5 0xB8 0x2E PC DUP10 0xEC PUSH31 0x719269904CE72A64736F6C63430008190033000000000000000000000000 "
				},
				"gasEstimates": {
					"creation": {
						"codeDepositCost": "976400",
						"executionCost": "25277",
						"totalCost": "1001677"
					},
					"external": {
						"getBalance()": "335",
						"getParticipates()": "infinite",
						"makeWinner()": "infinite",
						"owner()": "2550",
						"participate(string)": "infinite",
						"players(uint256)": "infinite",
						"winner()": "infinite"
					}
				},
				"methodIdentifiers": {
					"getBalance()": "12065fe0",
					"getParticipates()": "f8e743ef",
					"makeWinner()": "95251ef3",
					"owner()": "8da5cb5b",
					"participate(string)": "1d27769f",
					"players(uint256)": "f71d96cb",
					"winner()": "dfbf53ae"
				}
			},
			"storageLayout": {
				"storage": [
					{
						"astId": 8,
						"contract": "contracts/Lock.sol:Lock",
						"label": "owner",
						"offset": 0,
						"slot": "0",
						"type": "t_address"
					},
					{
						"astId": 12,
						"contract": "contracts/Lock.sol:Lock",
						"label": "players",
						"offset": 0,
						"slot": "1",
						"type": "t_array(t_struct(Player)6_storage)dyn_storage"
					},
					{
						"astId": 15,
						"contract": "contracts/Lock.sol:Lock",
						"label": "winner",
						"offset": 0,
						"slot": "2",
						"type": "t_struct(Player)6_storage"
					}
				],
				"types": {
					"t_address": {
						"encoding": "inplace",
						"label": "address",
						"numberOfBytes": "20"
					},
					"t_address_payable": {
						"encoding": "inplace",
						"label": "address payable",
						"numberOfBytes": "20"
					},
					"t_array(t_struct(Player)6_storage)dyn_storage": {
						"base": "t_struct(Player)6_storage",
						"encoding": "dynamic_array",
						"label": "struct Lock.Player[]",
						"numberOfBytes": "32"
					},
					"t_string_storage": {
						"encoding": "bytes",
						"label": "string",
						"numberOfBytes": "32"
					},
					"t_struct(Player)6_storage": {
						"encoding": "inplace",
						"label": "struct Lock.Player",
						"members": [
							{
								"astId": 3,
								"contract": "contracts/Lock.sol:Lock",
								"label": "name",
								"offset": 0,
								"slot": "0",
								"type": "t_string_storage"
							},
							{
								"astId": 5,
								"contract": "contracts/Lock.sol:Lock",
								"label": "addr",
								"offset": 0,
								"slot": "1",
								"type": "t_address_payable"
							}
						],
						"numberOfBytes": "64"
					}
				}
			},
			"userdoc": {
				"kind": "user",
				"methods": {},
				"version": 1
			}
		}
	}
}